{
  "contractName": "FarmerRole",
  "abi": [
    {
      "inputs": [],
      "stateMutability": "nonpayable",
      "type": "constructor"
    },
    {
      "anonymous": false,
      "inputs": [
        {
          "indexed": true,
          "internalType": "address",
          "name": "account",
          "type": "address"
        },
        {
          "indexed": false,
          "internalType": "string",
          "name": "roleName",
          "type": "string"
        }
      ],
      "name": "MemberAdded",
      "type": "event"
    },
    {
      "anonymous": false,
      "inputs": [
        {
          "indexed": true,
          "internalType": "address",
          "name": "account",
          "type": "address"
        },
        {
          "indexed": false,
          "internalType": "string",
          "name": "roleName",
          "type": "string"
        }
      ],
      "name": "MemberRemoved",
      "type": "event"
    },
    {
      "anonymous": false,
      "inputs": [
        {
          "indexed": true,
          "internalType": "address",
          "name": "oldOwner",
          "type": "address"
        },
        {
          "indexed": true,
          "internalType": "address",
          "name": "newOwner",
          "type": "address"
        }
      ],
      "name": "TransferOwnership",
      "type": "event"
    },
    {
      "stateMutability": "nonpayable",
      "type": "fallback"
    },
    {
      "inputs": [
        {
          "internalType": "address",
          "name": "account",
          "type": "address"
        }
      ],
      "name": "add",
      "outputs": [],
      "stateMutability": "nonpayable",
      "type": "function"
    },
    {
      "inputs": [],
      "name": "getRoleName",
      "outputs": [
        {
          "internalType": "string",
          "name": "",
          "type": "string"
        }
      ],
      "stateMutability": "view",
      "type": "function"
    },
    {
      "inputs": [
        {
          "internalType": "address",
          "name": "account",
          "type": "address"
        }
      ],
      "name": "isInRole",
      "outputs": [
        {
          "internalType": "bool",
          "name": "",
          "type": "bool"
        }
      ],
      "stateMutability": "view",
      "type": "function"
    },
    {
      "inputs": [],
      "name": "isOwner",
      "outputs": [
        {
          "internalType": "bool",
          "name": "",
          "type": "bool"
        }
      ],
      "stateMutability": "view",
      "type": "function"
    },
    {
      "inputs": [],
      "name": "owner",
      "outputs": [
        {
          "internalType": "address",
          "name": "",
          "type": "address"
        }
      ],
      "stateMutability": "view",
      "type": "function"
    },
    {
      "inputs": [],
      "name": "renounce",
      "outputs": [],
      "stateMutability": "nonpayable",
      "type": "function"
    },
    {
      "inputs": [],
      "name": "renounceOwnership",
      "outputs": [],
      "stateMutability": "nonpayable",
      "type": "function"
    },
    {
      "inputs": [
        {
          "internalType": "address",
          "name": "newOwner",
          "type": "address"
        }
      ],
      "name": "transferOwnership",
      "outputs": [],
      "stateMutability": "nonpayable",
      "type": "function"
    }
  ],
  "bytecode": "0x60806040523480156200001157600080fd5b506040518060400160405280600681526020017f4661726d65720000000000000000000000000000000000000000000000000000815250336000806101000a81548173ffffffffffffffffffffffffffffffffffffffff021916908373ffffffffffffffffffffffffffffffffffffffff16021790555060008054906101000a900473ffffffffffffffffffffffffffffffffffffffff1673ffffffffffffffffffffffffffffffffffffffff16600073ffffffffffffffffffffffffffffffffffffffff167f5c486528ec3e3f0ea91181cff8116f02bfa350e03b8b6f12e00765adbb5af85c60405160405180910390a380600190805190602001906200011b929190620002ec565b506200012d336200013460201b60201c565b50620004d7565b6200014f816002620001a360201b620003a81790919060201c565b8073ffffffffffffffffffffffffffffffffffffffff167f5660dfedd5f2d238aa153a2c488e927eb29ea0e780d70089f0e90c7409a2079c600160405162000198919062000428565b60405180910390a250565b600073ffffffffffffffffffffffffffffffffffffffff168173ffffffffffffffffffffffffffffffffffffffff161415620001de57600080fd5b620001f082826200025960201b60201c565b15620001fb57600080fd5b60018260000160008373ffffffffffffffffffffffffffffffffffffffff1673ffffffffffffffffffffffffffffffffffffffff16815260200190815260200160002060006101000a81548160ff0219169083151502179055505050565b60008073ffffffffffffffffffffffffffffffffffffffff168273ffffffffffffffffffffffffffffffffffffffff1614156200029557600080fd5b8260000160008373ffffffffffffffffffffffffffffffffffffffff1673ffffffffffffffffffffffffffffffffffffffff16815260200190815260200160002060009054906101000a900460ff16905092915050565b828054620002fa9062000472565b90600052602060002090601f0160209004810192826200031e57600085556200036a565b82601f106200033957805160ff19168380011785556200036a565b828001600101855582156200036a579182015b82811115620003695782518255916020019190600101906200034c565b5b5090506200037991906200037d565b5090565b5b80821115620003985760008160009055506001016200037e565b5090565b60008154620003ab8162000472565b620003b7818662000461565b94506001821660008114620003d55760018114620003e8576200041f565b60ff19831686526020860193506200041f565b620003f3856200044c565b60005b838110156200041757815481890152600182019150602081019050620003f6565b808801955050505b50505092915050565b600060208201905081810360008301526200044481846200039c565b905092915050565b60008190508160005260206000209050919050565b600082825260208201905092915050565b600060028204905060018216806200048b57607f821691505b60208210811415620004a257620004a1620004a8565b5b50919050565b7f4e487b7100000000000000000000000000000000000000000000000000000000600052602260045260246000fd5b610a4480620004e76000396000f3fe608060405234801561001057600080fd5b506004361061008c5760003560e01c8063b15be2f51161005b578063b15be2f5146100f1578063d9660e47146100fb578063db5a3f2314610119578063f2fde38b146101495761008d565b80630a3b0a4f1461008f578063715018a6146100ab5780638da5cb5b146100b55780638f32d59b146100d35761008d565b5b005b6100a960048036038101906100a49190610769565b610165565b005b6100b3610182565b005b6100bd610251565b6040516100ca9190610869565b60405180910390f35b6100db61027a565b6040516100e89190610884565b60405180910390f35b6100f96102d1565b005b6101036102dc565b604051610110919061089f565b60405180910390f35b610133600480360381019061012e9190610769565b61036e565b6040516101409190610884565b60405180910390f35b610163600480360381019061015e9190610769565b61038b565b005b61016d61027a565b61017657600080fd5b61017f81610454565b50565b61018a61027a565b61019357600080fd5b600073ffffffffffffffffffffffffffffffffffffffff1660008054906101000a900473ffffffffffffffffffffffffffffffffffffffff1673ffffffffffffffffffffffffffffffffffffffff167f5c486528ec3e3f0ea91181cff8116f02bfa350e03b8b6f12e00765adbb5af85c60405160405180910390a360008060006101000a81548173ffffffffffffffffffffffffffffffffffffffff021916908373ffffffffffffffffffffffffffffffffffffffff160217905550565b60008060009054906101000a900473ffffffffffffffffffffffffffffffffffffffff16905090565b60008060009054906101000a900473ffffffffffffffffffffffffffffffffffffffff1673ffffffffffffffffffffffffffffffffffffffff163373ffffffffffffffffffffffffffffffffffffffff1614905090565b6102da336104ba565b565b6060600180546102eb90610985565b80601f016020809104026020016040519081016040528092919081815260200182805461031790610985565b80156103645780601f1061033957610100808354040283529160200191610364565b820191906000526020600020905b81548152906001019060200180831161034757829003601f168201915b5050505050905090565b600061038482600261052090919063ffffffff16565b9050919050565b61039361027a565b61039c57600080fd5b6103a5816105b2565b50565b600073ffffffffffffffffffffffffffffffffffffffff168173ffffffffffffffffffffffffffffffffffffffff1614156103e257600080fd5b6103ec8282610520565b156103f657600080fd5b60018260000160008373ffffffffffffffffffffffffffffffffffffffff1673ffffffffffffffffffffffffffffffffffffffff16815260200190815260200160002060006101000a81548160ff0219169083151502179055505050565b6104688160026103a890919063ffffffff16565b8073ffffffffffffffffffffffffffffffffffffffff167f5660dfedd5f2d238aa153a2c488e927eb29ea0e780d70089f0e90c7409a2079c60016040516104af91906108c1565b60405180910390a250565b6104ce8160026106a990919063ffffffff16565b8073ffffffffffffffffffffffffffffffffffffffff167f969f49cd69e4049f144b7dd012d53b6ef9064eca8bca1f4b30162ab52e04f5c1600160405161051591906108c1565b60405180910390a250565b60008073ffffffffffffffffffffffffffffffffffffffff168273ffffffffffffffffffffffffffffffffffffffff16141561055b57600080fd5b8260000160008373ffffffffffffffffffffffffffffffffffffffff1673ffffffffffffffffffffffffffffffffffffffff16815260200190815260200160002060009054906101000a900460ff16905092915050565b600073ffffffffffffffffffffffffffffffffffffffff168173ffffffffffffffffffffffffffffffffffffffff1614156105ec57600080fd5b8073ffffffffffffffffffffffffffffffffffffffff1660008054906101000a900473ffffffffffffffffffffffffffffffffffffffff1673ffffffffffffffffffffffffffffffffffffffff167f5c486528ec3e3f0ea91181cff8116f02bfa350e03b8b6f12e00765adbb5af85c60405160405180910390a3806000806101000a81548173ffffffffffffffffffffffffffffffffffffffff021916908373ffffffffffffffffffffffffffffffffffffffff16021790555050565b600073ffffffffffffffffffffffffffffffffffffffff168173ffffffffffffffffffffffffffffffffffffffff1614156106e357600080fd5b6106ed8282610520565b6106f657600080fd5b60008260000160008373ffffffffffffffffffffffffffffffffffffffff1673ffffffffffffffffffffffffffffffffffffffff16815260200190815260200160002060006101000a81548160ff0219169083151502179055505050565b600081359050610763816109f7565b92915050565b60006020828403121561077b57600080fd5b600061078984828501610754565b91505092915050565b61079b81610914565b82525050565b6107aa81610926565b82525050565b60006107bb826108f8565b6107c58185610903565b93506107d5818560208601610952565b6107de816109e6565b840191505092915050565b600081546107f681610985565b6108008186610903565b9450600182166000811461081b576001811461082d57610860565b60ff1983168652602086019350610860565b610836856108e3565b60005b8381101561085857815481890152600182019150602081019050610839565b808801955050505b50505092915050565b600060208201905061087e6000830184610792565b92915050565b600060208201905061089960008301846107a1565b92915050565b600060208201905081810360008301526108b981846107b0565b905092915050565b600060208201905081810360008301526108db81846107e9565b905092915050565b60008190508160005260206000209050919050565b600081519050919050565b600082825260208201905092915050565b600061091f82610932565b9050919050565b60008115159050919050565b600073ffffffffffffffffffffffffffffffffffffffff82169050919050565b60005b83811015610970578082015181840152602081019050610955565b8381111561097f576000848401525b50505050565b6000600282049050600182168061099d57607f821691505b602082108114156109b1576109b06109b7565b5b50919050565b7f4e487b7100000000000000000000000000000000000000000000000000000000600052602260045260246000fd5b6000601f19601f8301169050919050565b610a0081610914565b8114610a0b57600080fd5b5056fea2646970667358221220e0552e57093822532d797f511bdcbda3762438ea4e1701be2ad9620a334519bb64736f6c63430008030033",
  "immutableReferences": {},
  "source": "// SPDX-License-Identifier: MIT\npragma solidity ^0.8.0;\n\nimport \"./BaseRole.sol\";\n\ncontract FarmerRole is BaseRole {\n    constructor() BaseRole(\"Farmer\") {\n    }\n}\n",
  "sourcePath": "/Users/sergeygordeev/work/study/BlockChain/Udacity/udacity-supply-chain/project-6/contracts/coffeeaccesscontrol/FarmerRole.sol",
  "compiler": {
    "name": "solc",
    "version": "0.8.3+commit.8d00100c.Emscripten.clang"
  },
  "schemaVersion": "3.4.0",
  "updatedAt": "2021-04-28T06:36:30.787Z",
  "devdoc": {
    "kind": "dev",
    "methods": {},
    "version": 1
  },
  "userdoc": {
    "kind": "user",
    "methods": {
      "isOwner()": {
        "notice": "Check if the calling address is the owner of the contract"
      },
      "owner()": {
        "notice": "Look up the address of the owner"
      },
      "renounceOwnership()": {
        "notice": "Define a function to renounce ownerhip"
      },
      "transferOwnership(address)": {
        "notice": "Define a public function to transfer ownership"
      }
    },
    "version": 1
  }
}