{
  "contractName": "SupplyChain",
  "abi": [
    {
      "inputs": [],
      "stateMutability": "nonpayable",
      "type": "constructor"
    },
    {
      "anonymous": false,
      "inputs": [
        {
          "indexed": false,
          "internalType": "uint256",
          "name": "upc",
          "type": "uint256"
        }
      ],
      "name": "ForSale",
      "type": "event"
    },
    {
      "anonymous": false,
      "inputs": [
        {
          "indexed": false,
          "internalType": "uint256",
          "name": "upc",
          "type": "uint256"
        }
      ],
      "name": "Harvested",
      "type": "event"
    },
    {
      "anonymous": false,
      "inputs": [
        {
          "indexed": true,
          "internalType": "address",
          "name": "account",
          "type": "address"
        },
        {
          "indexed": false,
          "internalType": "string",
          "name": "roleName",
          "type": "string"
        }
      ],
      "name": "MemberAdded",
      "type": "event"
    },
    {
      "anonymous": false,
      "inputs": [
        {
          "indexed": true,
          "internalType": "address",
          "name": "account",
          "type": "address"
        },
        {
          "indexed": false,
          "internalType": "string",
          "name": "roleName",
          "type": "string"
        }
      ],
      "name": "MemberRemoved",
      "type": "event"
    },
    {
      "anonymous": false,
      "inputs": [
        {
          "indexed": false,
          "internalType": "uint256",
          "name": "upc",
          "type": "uint256"
        }
      ],
      "name": "Packed",
      "type": "event"
    },
    {
      "anonymous": false,
      "inputs": [
        {
          "indexed": false,
          "internalType": "uint256",
          "name": "upc",
          "type": "uint256"
        }
      ],
      "name": "Processed",
      "type": "event"
    },
    {
      "anonymous": false,
      "inputs": [
        {
          "indexed": false,
          "internalType": "uint256",
          "name": "upc",
          "type": "uint256"
        }
      ],
      "name": "Purchased",
      "type": "event"
    },
    {
      "anonymous": false,
      "inputs": [
        {
          "indexed": false,
          "internalType": "uint256",
          "name": "upc",
          "type": "uint256"
        }
      ],
      "name": "Received",
      "type": "event"
    },
    {
      "anonymous": false,
      "inputs": [
        {
          "indexed": false,
          "internalType": "uint256",
          "name": "upc",
          "type": "uint256"
        }
      ],
      "name": "Shipped",
      "type": "event"
    },
    {
      "anonymous": false,
      "inputs": [
        {
          "indexed": false,
          "internalType": "uint256",
          "name": "upc",
          "type": "uint256"
        }
      ],
      "name": "Sold",
      "type": "event"
    },
    {
      "anonymous": false,
      "inputs": [
        {
          "indexed": true,
          "internalType": "address",
          "name": "oldOwner",
          "type": "address"
        },
        {
          "indexed": true,
          "internalType": "address",
          "name": "newOwner",
          "type": "address"
        }
      ],
      "name": "TransferOwnership",
      "type": "event"
    },
    {
      "stateMutability": "nonpayable",
      "type": "fallback"
    },
    {
      "inputs": [
        {
          "internalType": "address",
          "name": "account",
          "type": "address"
        }
      ],
      "name": "add",
      "outputs": [],
      "stateMutability": "nonpayable",
      "type": "function"
    },
    {
      "inputs": [],
      "name": "getRoleName",
      "outputs": [
        {
          "internalType": "string",
          "name": "",
          "type": "string"
        }
      ],
      "stateMutability": "view",
      "type": "function"
    },
    {
      "inputs": [
        {
          "internalType": "address",
          "name": "account",
          "type": "address"
        }
      ],
      "name": "isInRole",
      "outputs": [
        {
          "internalType": "bool",
          "name": "",
          "type": "bool"
        }
      ],
      "stateMutability": "view",
      "type": "function"
    },
    {
      "inputs": [],
      "name": "isOwner",
      "outputs": [
        {
          "internalType": "bool",
          "name": "",
          "type": "bool"
        }
      ],
      "stateMutability": "view",
      "type": "function"
    },
    {
      "inputs": [],
      "name": "owner",
      "outputs": [
        {
          "internalType": "address",
          "name": "",
          "type": "address"
        }
      ],
      "stateMutability": "view",
      "type": "function"
    },
    {
      "inputs": [],
      "name": "renounce",
      "outputs": [],
      "stateMutability": "nonpayable",
      "type": "function"
    },
    {
      "inputs": [],
      "name": "renounceOwnership",
      "outputs": [],
      "stateMutability": "nonpayable",
      "type": "function"
    },
    {
      "inputs": [
        {
          "internalType": "address",
          "name": "newOwner",
          "type": "address"
        }
      ],
      "name": "transferOwnership",
      "outputs": [],
      "stateMutability": "nonpayable",
      "type": "function"
    },
    {
      "inputs": [],
      "name": "kill",
      "outputs": [],
      "stateMutability": "nonpayable",
      "type": "function"
    },
    {
      "inputs": [
        {
          "internalType": "uint256",
          "name": "_upc",
          "type": "uint256"
        },
        {
          "internalType": "address",
          "name": "_originFarmerID",
          "type": "address"
        },
        {
          "internalType": "string",
          "name": "_originFarmName",
          "type": "string"
        },
        {
          "internalType": "string",
          "name": "_originFarmInformation",
          "type": "string"
        },
        {
          "internalType": "string",
          "name": "_originFarmLatitude",
          "type": "string"
        },
        {
          "internalType": "string",
          "name": "_originFarmLongitude",
          "type": "string"
        },
        {
          "internalType": "string",
          "name": "_productNotes",
          "type": "string"
        }
      ],
      "name": "harvestItem",
      "outputs": [],
      "stateMutability": "nonpayable",
      "type": "function"
    },
    {
      "inputs": [
        {
          "internalType": "uint256",
          "name": "_upc",
          "type": "uint256"
        }
      ],
      "name": "processItem",
      "outputs": [],
      "stateMutability": "nonpayable",
      "type": "function"
    },
    {
      "inputs": [
        {
          "internalType": "uint256",
          "name": "_upc",
          "type": "uint256"
        }
      ],
      "name": "packItem",
      "outputs": [],
      "stateMutability": "nonpayable",
      "type": "function"
    },
    {
      "inputs": [
        {
          "internalType": "uint256",
          "name": "_upc",
          "type": "uint256"
        },
        {
          "internalType": "uint256",
          "name": "_price",
          "type": "uint256"
        }
      ],
      "name": "sellItem",
      "outputs": [],
      "stateMutability": "nonpayable",
      "type": "function"
    },
    {
      "inputs": [
        {
          "internalType": "uint256",
          "name": "_upc",
          "type": "uint256"
        }
      ],
      "name": "buyItem",
      "outputs": [],
      "stateMutability": "payable",
      "type": "function"
    },
    {
      "inputs": [
        {
          "internalType": "uint256",
          "name": "_upc",
          "type": "uint256"
        }
      ],
      "name": "shipItem",
      "outputs": [],
      "stateMutability": "nonpayable",
      "type": "function"
    },
    {
      "inputs": [
        {
          "internalType": "uint256",
          "name": "_upc",
          "type": "uint256"
        }
      ],
      "name": "receiveItem",
      "outputs": [],
      "stateMutability": "nonpayable",
      "type": "function"
    },
    {
      "inputs": [
        {
          "internalType": "uint256",
          "name": "_upc",
          "type": "uint256"
        }
      ],
      "name": "purchaseItem",
      "outputs": [],
      "stateMutability": "nonpayable",
      "type": "function"
    },
    {
      "inputs": [
        {
          "internalType": "uint256",
          "name": "_upc",
          "type": "uint256"
        }
      ],
      "name": "fetchItemBufferOne",
      "outputs": [
        {
          "internalType": "uint256",
          "name": "itemSKU",
          "type": "uint256"
        },
        {
          "internalType": "uint256",
          "name": "itemUPC",
          "type": "uint256"
        },
        {
          "internalType": "address",
          "name": "ownerID",
          "type": "address"
        },
        {
          "internalType": "address",
          "name": "originFarmerID",
          "type": "address"
        },
        {
          "internalType": "string",
          "name": "originFarmName",
          "type": "string"
        },
        {
          "internalType": "string",
          "name": "originFarmInformation",
          "type": "string"
        },
        {
          "internalType": "string",
          "name": "originFarmLatitude",
          "type": "string"
        },
        {
          "internalType": "string",
          "name": "originFarmLongitude",
          "type": "string"
        }
      ],
      "stateMutability": "view",
      "type": "function"
    },
    {
      "inputs": [
        {
          "internalType": "uint256",
          "name": "_upc",
          "type": "uint256"
        }
      ],
      "name": "fetchItemBufferTwo",
      "outputs": [
        {
          "internalType": "uint256",
          "name": "itemSKU",
          "type": "uint256"
        },
        {
          "internalType": "uint256",
          "name": "itemUPC",
          "type": "uint256"
        },
        {
          "internalType": "bytes32",
          "name": "productID",
          "type": "bytes32"
        },
        {
          "internalType": "string",
          "name": "productNotes",
          "type": "string"
        },
        {
          "internalType": "uint256",
          "name": "productPrice",
          "type": "uint256"
        },
        {
          "internalType": "enum SupplyChain.State",
          "name": "itemState",
          "type": "uint8"
        },
        {
          "internalType": "address",
          "name": "distributorID",
          "type": "address"
        },
        {
          "internalType": "address",
          "name": "retailerID",
          "type": "address"
        },
        {
          "internalType": "address",
          "name": "consumerID",
          "type": "address"
        }
      ],
      "stateMutability": "view",
      "type": "function"
    }
  ],
  "bytecode": "0x60806040523480156200001157600080fd5b506040518060400160405280600681526020017f4661726d65720000000000000000000000000000000000000000000000000000815250336000806101000a81548173ffffffffffffffffffffffffffffffffffffffff021916908373ffffffffffffffffffffffffffffffffffffffff16021790555060008054906101000a900473ffffffffffffffffffffffffffffffffffffffff1673ffffffffffffffffffffffffffffffffffffffff16600073ffffffffffffffffffffffffffffffffffffffff167f5c486528ec3e3f0ea91181cff8116f02bfa350e03b8b6f12e00765adbb5af85c60405160405180910390a380600190805190602001906200011b929190620002fc565b506200012d336200014460201b60201c565b5060016004819055506001600381905550620004e7565b6200015f816002620001b360201b620017381790919060201c565b8073ffffffffffffffffffffffffffffffffffffffff167f5660dfedd5f2d238aa153a2c488e927eb29ea0e780d70089f0e90c7409a2079c6001604051620001a8919062000438565b60405180910390a250565b600073ffffffffffffffffffffffffffffffffffffffff168173ffffffffffffffffffffffffffffffffffffffff161415620001ee57600080fd5b6200020082826200026960201b60201c565b156200020b57600080fd5b60018260000160008373ffffffffffffffffffffffffffffffffffffffff1673ffffffffffffffffffffffffffffffffffffffff16815260200190815260200160002060006101000a81548160ff0219169083151502179055505050565b60008073ffffffffffffffffffffffffffffffffffffffff168273ffffffffffffffffffffffffffffffffffffffff161415620002a557600080fd5b8260000160008373ffffffffffffffffffffffffffffffffffffffff1673ffffffffffffffffffffffffffffffffffffffff16815260200190815260200160002060009054906101000a900460ff16905092915050565b8280546200030a9062000482565b90600052602060002090601f0160209004810192826200032e57600085556200037a565b82601f106200034957805160ff19168380011785556200037a565b828001600101855582156200037a579182015b82811115620003795782518255916020019190600101906200035c565b5b5090506200038991906200038d565b5090565b5b80821115620003a85760008160009055506001016200038e565b5090565b60008154620003bb8162000482565b620003c7818662000471565b94506001821660008114620003e55760018114620003f8576200042f565b60ff19831686526020860193506200042f565b62000403856200045c565b60005b83811015620004275781548189015260018201915060208101905062000406565b808801955050505b50505092915050565b60006020820190508181036000830152620004548184620003ac565b905092915050565b60008190508160005260206000209050919050565b600082825260208201905092915050565b600060028204905060018216806200049b57607f821691505b60208210811415620004b257620004b1620004b8565b5b50919050565b7f4e487b7100000000000000000000000000000000000000000000000000000000600052602260045260246000fd5b61273580620004f76000396000f3fe6080604052600436106101185760003560e01c8063a26be999116100a0578063db5a3f2311610064578063db5a3f231461036d578063e7fb74c7146103aa578063f2fde38b146103c6578063f30fc480146103ef578063f61c899a1461041857610119565b8063a26be999146102b0578063b15be2f5146102d9578063bdd8a6a8146102f0578063d38ea5bf14610319578063d9660e471461034257610119565b806366225ff9116100e757806366225ff9146101ba578063715018a6146101ff57806377c45913146102165780638da5cb5b1461025a5780638f32d59b1461028557610119565b80630a3b0a4f146101285780632d9235611461015157806341c0e1b51461017a57806349dae7661461019157610119565b5b34801561012557600080fd5b50005b34801561013457600080fd5b5061014f600480360381019061014a9190611d38565b610441565b005b34801561015d57600080fd5b5061017860048036038101906101739190611ea0565b61045e565b005b34801561018657600080fd5b5061018f610462565b005b34801561019d57600080fd5b506101b860048036038101906101b39190611d61565b6104bf565b005b3480156101c657600080fd5b506101e160048036038101906101dc9190611d61565b6104c2565b6040516101f699989796959493929190612348565b60405180910390f35b34801561020b57600080fd5b50610214610a7e565b005b34801561022257600080fd5b5061023d60048036038101906102389190611d61565b610b4d565b6040516102519897969594939291906122ae565b60405180910390f35b34801561026657600080fd5b5061026f6110f7565b60405161027c91906121f7565b60405180910390f35b34801561029157600080fd5b5061029a611120565b6040516102a79190612212565b60405180910390f35b3480156102bc57600080fd5b506102d760048036038101906102d29190611d61565b611177565b005b3480156102e557600080fd5b506102ee61117a565b005b3480156102fc57600080fd5b5061031760048036038101906103129190611d8a565b611185565b005b34801561032557600080fd5b50610340600480360381019061033b9190611d61565b611660565b005b34801561034e57600080fd5b50610357611663565b604051610364919061222d565b60405180910390f35b34801561037957600080fd5b50610394600480360381019061038f9190611d38565b6116f5565b6040516103a19190612212565b60405180910390f35b6103c460048036038101906103bf9190611d61565b611712565b005b3480156103d257600080fd5b506103ed60048036038101906103e89190611d38565b611715565b005b3480156103fb57600080fd5b5061041660048036038101906104119190611d61565b611732565b005b34801561042457600080fd5b5061043f600480360381019061043a9190611d61565b611735565b005b610449611120565b61045257600080fd5b61045b816117e4565b50565b5050565b61046a6110f7565b73ffffffffffffffffffffffffffffffffffffffff163373ffffffffffffffffffffffffffffffffffffffff1614156104bd576104a56110f7565b73ffffffffffffffffffffffffffffffffffffffff16ff5b565b50565b60008060006060600080600080600080600560008c8152602001908152602001600020604051806101e001604052908160008201548152602001600182015481526020016002820160009054906101000a900473ffffffffffffffffffffffffffffffffffffffff1673ffffffffffffffffffffffffffffffffffffffff1673ffffffffffffffffffffffffffffffffffffffff1681526020016003820160009054906101000a900473ffffffffffffffffffffffffffffffffffffffff1673ffffffffffffffffffffffffffffffffffffffff1673ffffffffffffffffffffffffffffffffffffffff1681526020016004820180546105c190612583565b80601f01602080910402602001604051908101604052809291908181526020018280546105ed90612583565b801561063a5780601f1061060f5761010080835404028352916020019161063a565b820191906000526020600020905b81548152906001019060200180831161061d57829003601f168201915b5050505050815260200160058201805461065390612583565b80601f016020809104026020016040519081016040528092919081815260200182805461067f90612583565b80156106cc5780601f106106a1576101008083540402835291602001916106cc565b820191906000526020600020905b8154815290600101906020018083116106af57829003601f168201915b505050505081526020016006820180546106e590612583565b80601f016020809104026020016040519081016040528092919081815260200182805461071190612583565b801561075e5780601f106107335761010080835404028352916020019161075e565b820191906000526020600020905b81548152906001019060200180831161074157829003601f168201915b5050505050815260200160078201805461077790612583565b80601f01602080910402602001604051908101604052809291908181526020018280546107a390612583565b80156107f05780601f106107c5576101008083540402835291602001916107f0565b820191906000526020600020905b8154815290600101906020018083116107d357829003601f168201915b505050505081526020016008820154815260200160098201805461081390612583565b80601f016020809104026020016040519081016040528092919081815260200182805461083f90612583565b801561088c5780601f106108615761010080835404028352916020019161088c565b820191906000526020600020905b81548152906001019060200180831161086f57829003601f168201915b50505050508152602001600a8201548152602001600b820160009054906101000a900460ff1660078111156108ea577f4e487b7100000000000000000000000000000000000000000000000000000000600052602160045260246000fd5b6007811115610922577f4e487b7100000000000000000000000000000000000000000000000000000000600052602160045260246000fd5b8152602001600b820160019054906101000a900473ffffffffffffffffffffffffffffffffffffffff1673ffffffffffffffffffffffffffffffffffffffff1673ffffffffffffffffffffffffffffffffffffffff168152602001600c820160009054906101000a900473ffffffffffffffffffffffffffffffffffffffff1673ffffffffffffffffffffffffffffffffffffffff1673ffffffffffffffffffffffffffffffffffffffff168152602001600d820160009054906101000a900473ffffffffffffffffffffffffffffffffffffffff1673ffffffffffffffffffffffffffffffffffffffff1673ffffffffffffffffffffffffffffffffffffffff1681525050905080600001518160200151826101000151836101200151846101400151856101600151866101800151876101a00151886101c00151995099509950995099509950995099509950509193959799909294969850565b610a86611120565b610a8f57600080fd5b600073ffffffffffffffffffffffffffffffffffffffff1660008054906101000a900473ffffffffffffffffffffffffffffffffffffffff1673ffffffffffffffffffffffffffffffffffffffff167f5c486528ec3e3f0ea91181cff8116f02bfa350e03b8b6f12e00765adbb5af85c60405160405180910390a360008060006101000a81548173ffffffffffffffffffffffffffffffffffffffff021916908373ffffffffffffffffffffffffffffffffffffffff160217905550565b6000806000806060806060806000600560008b8152602001908152602001600020604051806101e001604052908160008201548152602001600182015481526020016002820160009054906101000a900473ffffffffffffffffffffffffffffffffffffffff1673ffffffffffffffffffffffffffffffffffffffff1673ffffffffffffffffffffffffffffffffffffffff1681526020016003820160009054906101000a900473ffffffffffffffffffffffffffffffffffffffff1673ffffffffffffffffffffffffffffffffffffffff1673ffffffffffffffffffffffffffffffffffffffff168152602001600482018054610c4a90612583565b80601f0160208091040260200160405190810160405280929190818152602001828054610c7690612583565b8015610cc35780601f10610c9857610100808354040283529160200191610cc3565b820191906000526020600020905b815481529060010190602001808311610ca657829003601f168201915b50505050508152602001600582018054610cdc90612583565b80601f0160208091040260200160405190810160405280929190818152602001828054610d0890612583565b8015610d555780601f10610d2a57610100808354040283529160200191610d55565b820191906000526020600020905b815481529060010190602001808311610d3857829003601f168201915b50505050508152602001600682018054610d6e90612583565b80601f0160208091040260200160405190810160405280929190818152602001828054610d9a90612583565b8015610de75780601f10610dbc57610100808354040283529160200191610de7565b820191906000526020600020905b815481529060010190602001808311610dca57829003601f168201915b50505050508152602001600782018054610e0090612583565b80601f0160208091040260200160405190810160405280929190818152602001828054610e2c90612583565b8015610e795780601f10610e4e57610100808354040283529160200191610e79565b820191906000526020600020905b815481529060010190602001808311610e5c57829003601f168201915b5050505050815260200160088201548152602001600982018054610e9c90612583565b80601f0160208091040260200160405190810160405280929190818152602001828054610ec890612583565b8015610f155780601f10610eea57610100808354040283529160200191610f15565b820191906000526020600020905b815481529060010190602001808311610ef857829003601f168201915b50505050508152602001600a8201548152602001600b820160009054906101000a900460ff166007811115610f73577f4e487b7100000000000000000000000000000000000000000000000000000000600052602160045260246000fd5b6007811115610fab577f4e487b7100000000000000000000000000000000000000000000000000000000600052602160045260246000fd5b8152602001600b820160019054906101000a900473ffffffffffffffffffffffffffffffffffffffff1673ffffffffffffffffffffffffffffffffffffffff1673ffffffffffffffffffffffffffffffffffffffff168152602001600c820160009054906101000a900473ffffffffffffffffffffffffffffffffffffffff1673ffffffffffffffffffffffffffffffffffffffff1673ffffffffffffffffffffffffffffffffffffffff168152602001600d820160009054906101000a900473ffffffffffffffffffffffffffffffffffffffff1673ffffffffffffffffffffffffffffffffffffffff1673ffffffffffffffffffffffffffffffffffffffff16815250509050806000015181602001518260400151836060015184608001518560a001518660c001518760e001519850985098509850985098509850985050919395975091939597565b60008060009054906101000a900473ffffffffffffffffffffffffffffffffffffffff16905090565b60008060009054906101000a900473ffffffffffffffffffffffffffffffffffffffff1673ffffffffffffffffffffffffffffffffffffffff163373ffffffffffffffffffffffffffffffffffffffff1614905090565b50565b6111833361184a565b565b61118d611120565b61119657600080fd5b61119e611ae4565b6004548160000181815250508781602001818152505086816040019073ffffffffffffffffffffffffffffffffffffffff16908173ffffffffffffffffffffffffffffffffffffffff168152505086816060019073ffffffffffffffffffffffffffffffffffffffff16908173ffffffffffffffffffffffffffffffffffffffff1681525050858160800181905250848160a00181905250838160c00181905250828160e001819052506004548860405160200161125d9291906121cb565b604051602081830303815290604052805190602001208161010001818152505081816101200181905250600081610160019060078111156112c7577f4e487b7100000000000000000000000000000000000000000000000000000000600052602160045260246000fd5b90816007811115611301577f4e487b7100000000000000000000000000000000000000000000000000000000600052602160045260246000fd5b8152505080600560008a8152602001908152602001600020600082015181600001556020820151816001015560408201518160020160006101000a81548173ffffffffffffffffffffffffffffffffffffffff021916908373ffffffffffffffffffffffffffffffffffffffff16021790555060608201518160030160006101000a81548173ffffffffffffffffffffffffffffffffffffffff021916908373ffffffffffffffffffffffffffffffffffffffff16021790555060808201518160040190805190602001906113d7929190611c03565b5060a08201518160050190805190602001906113f4929190611c03565b5060c0820151816006019080519060200190611411929190611c03565b5060e082015181600701908051906020019061142e929190611c03565b506101008201518160080155610120820151816009019080519060200190611457929190611c03565b5061014082015181600a015561016082015181600b0160006101000a81548160ff021916908360078111156114b5577f4e487b7100000000000000000000000000000000000000000000000000000000600052602160045260246000fd5b021790555061018082015181600b0160016101000a81548173ffffffffffffffffffffffffffffffffffffffff021916908373ffffffffffffffffffffffffffffffffffffffff1602179055506101a082015181600c0160006101000a81548173ffffffffffffffffffffffffffffffffffffffff021916908373ffffffffffffffffffffffffffffffffffffffff1602179055506101c082015181600d0160006101000a81548173ffffffffffffffffffffffffffffffffffffffff021916908373ffffffffffffffffffffffffffffffffffffffff16021790555090505060066000898152602001908152602001600020816040516020016115b99190612271565b604051602081830303815290604052908060018154018082558091505060019003906000526020600020016000909190919091509080519060200190611600929190611c03565b506001600460008282546116149190612474565b925050819055507f8e55ccfc9778ff8eba1646d765cf1982537ce0f9257054a17b48aad745250183816020015160405161164e9190612293565b60405180910390a15050505050505050565b50565b60606001805461167290612583565b80601f016020809104026020016040519081016040528092919081815260200182805461169e90612583565b80156116eb5780601f106116c0576101008083540402835291602001916116eb565b820191906000526020600020905b8154815290600101906020018083116116ce57829003601f168201915b5050505050905090565b600061170b8260026118b090919063ffffffff16565b9050919050565b50565b61171d611120565b61172657600080fd5b61172f81611942565b50565b50565b50565b600073ffffffffffffffffffffffffffffffffffffffff168173ffffffffffffffffffffffffffffffffffffffff16141561177257600080fd5b61177c82826118b0565b1561178657600080fd5b60018260000160008373ffffffffffffffffffffffffffffffffffffffff1673ffffffffffffffffffffffffffffffffffffffff16815260200190815260200160002060006101000a81548160ff0219169083151502179055505050565b6117f881600261173890919063ffffffff16565b8073ffffffffffffffffffffffffffffffffffffffff167f5660dfedd5f2d238aa153a2c488e927eb29ea0e780d70089f0e90c7409a2079c600160405161183f919061224f565b60405180910390a250565b61185e816002611a3990919063ffffffff16565b8073ffffffffffffffffffffffffffffffffffffffff167f969f49cd69e4049f144b7dd012d53b6ef9064eca8bca1f4b30162ab52e04f5c160016040516118a5919061224f565b60405180910390a250565b60008073ffffffffffffffffffffffffffffffffffffffff168273ffffffffffffffffffffffffffffffffffffffff1614156118eb57600080fd5b8260000160008373ffffffffffffffffffffffffffffffffffffffff1673ffffffffffffffffffffffffffffffffffffffff16815260200190815260200160002060009054906101000a900460ff16905092915050565b600073ffffffffffffffffffffffffffffffffffffffff168173ffffffffffffffffffffffffffffffffffffffff16141561197c57600080fd5b8073ffffffffffffffffffffffffffffffffffffffff1660008054906101000a900473ffffffffffffffffffffffffffffffffffffffff1673ffffffffffffffffffffffffffffffffffffffff167f5c486528ec3e3f0ea91181cff8116f02bfa350e03b8b6f12e00765adbb5af85c60405160405180910390a3806000806101000a81548173ffffffffffffffffffffffffffffffffffffffff021916908373ffffffffffffffffffffffffffffffffffffffff16021790555050565b600073ffffffffffffffffffffffffffffffffffffffff168173ffffffffffffffffffffffffffffffffffffffff161415611a7357600080fd5b611a7d82826118b0565b611a8657600080fd5b60008260000160008373ffffffffffffffffffffffffffffffffffffffff1673ffffffffffffffffffffffffffffffffffffffff16815260200190815260200160002060006101000a81548160ff0219169083151502179055505050565b604051806101e001604052806000815260200160008152602001600073ffffffffffffffffffffffffffffffffffffffff168152602001600073ffffffffffffffffffffffffffffffffffffffff1681526020016060815260200160608152602001606081526020016060815260200160008019168152602001606081526020016000815260200160006007811115611ba6577f4e487b7100000000000000000000000000000000000000000000000000000000600052602160045260246000fd5b8152602001600073ffffffffffffffffffffffffffffffffffffffff168152602001600073ffffffffffffffffffffffffffffffffffffffff168152602001600073ffffffffffffffffffffffffffffffffffffffff1681525090565b828054611c0f90612583565b90600052602060002090601f016020900481019282611c315760008555611c78565b82601f10611c4a57805160ff1916838001178555611c78565b82800160010185558215611c78579182015b82811115611c77578251825591602001919060010190611c5c565b5b509050611c859190611c89565b5090565b5b80821115611ca2576000816000905550600101611c8a565b5090565b6000611cb9611cb484612401565b6123dc565b905082815260208101848484011115611cd157600080fd5b611cdc848285612541565b509392505050565b600081359050611cf3816126d1565b92915050565b600082601f830112611d0a57600080fd5b8135611d1a848260208601611ca6565b91505092915050565b600081359050611d32816126e8565b92915050565b600060208284031215611d4a57600080fd5b6000611d5884828501611ce4565b91505092915050565b600060208284031215611d7357600080fd5b6000611d8184828501611d23565b91505092915050565b600080600080600080600060e0888a031215611da557600080fd5b6000611db38a828b01611d23565b9750506020611dc48a828b01611ce4565b965050604088013567ffffffffffffffff811115611de157600080fd5b611ded8a828b01611cf9565b955050606088013567ffffffffffffffff811115611e0a57600080fd5b611e168a828b01611cf9565b945050608088013567ffffffffffffffff811115611e3357600080fd5b611e3f8a828b01611cf9565b93505060a088013567ffffffffffffffff811115611e5c57600080fd5b611e688a828b01611cf9565b92505060c088013567ffffffffffffffff811115611e8557600080fd5b611e918a828b01611cf9565b91505092959891949750929550565b60008060408385031215611eb357600080fd5b6000611ec185828601611d23565b9250506020611ed285828601611d23565b9150509250929050565b611ee5816124ca565b82525050565b611ef4816124ca565b82525050565b611f03816124dc565b82525050565b611f12816124e8565b82525050565b611f21816124e8565b82525050565b611f308161252f565b82525050565b611f3f8161252f565b82525050565b6000611f5082612447565b611f5a8185612452565b9350611f6a818560208601612550565b611f73816126ac565b840191505092915050565b6000611f8982612447565b611f938185612463565b9350611fa3818560208601612550565b611fac816126ac565b840191505092915050565b60008154611fc481612583565b611fce8186612463565b94506001821660008114611fe95760018114611ffb5761202e565b60ff198316865260208601935061202e565b61200485612432565b60005b8381101561202657815481890152600182019150602081019050612007565b808801955050505b50505092915050565b60006101e0830160008301516120506000860182612196565b5060208301516120636020860182612196565b5060408301516120766040860182611edc565b5060608301516120896060860182611edc565b50608083015184820360808601526120a18282611f45565b91505060a083015184820360a08601526120bb8282611f45565b91505060c083015184820360c08601526120d58282611f45565b91505060e083015184820360e08601526120ef8282611f45565b915050610100830151612106610100860182611f09565b506101208301518482036101208601526121208282611f45565b915050610140830151612137610140860182612196565b5061016083015161214c610160860182611f27565b50610180830151612161610180860182611edc565b506101a08301516121766101a0860182611edc565b506101c083015161218b6101c0860182611edc565b508091505092915050565b61219f81612525565b82525050565b6121ae81612525565b82525050565b6121c56121c082612525565b6125e6565b82525050565b60006121d782856121b4565b6020820191506121e782846121b4565b6020820191508190509392505050565b600060208201905061220c6000830184611eeb565b92915050565b60006020820190506122276000830184611efa565b92915050565b600060208201905081810360008301526122478184611f7e565b905092915050565b600060208201905081810360008301526122698184611fb7565b905092915050565b6000602082019050818103600083015261228b8184612037565b905092915050565b60006020820190506122a860008301846121a5565b92915050565b6000610100820190506122c4600083018b6121a5565b6122d1602083018a6121a5565b6122de6040830189611eeb565b6122eb6060830188611eeb565b81810360808301526122fd8187611f7e565b905081810360a08301526123118186611f7e565b905081810360c08301526123258185611f7e565b905081810360e08301526123398184611f7e565b90509998505050505050505050565b60006101208201905061235e600083018c6121a5565b61236b602083018b6121a5565b612378604083018a611f18565b818103606083015261238a8189611f7e565b905061239960808301886121a5565b6123a660a0830187611f36565b6123b360c0830186611eeb565b6123c060e0830185611eeb565b6123ce610100830184611eeb565b9a9950505050505050505050565b60006123e66123f7565b90506123f282826125b5565b919050565b6000604051905090565b600067ffffffffffffffff82111561241c5761241b61267d565b5b612425826126ac565b9050602081019050919050565b60008190508160005260206000209050919050565b600081519050919050565b600082825260208201905092915050565b600082825260208201905092915050565b600061247f82612525565b915061248a83612525565b9250827fffffffffffffffffffffffffffffffffffffffffffffffffffffffffffffffff038211156124bf576124be6125f0565b5b828201905092915050565b60006124d582612505565b9050919050565b60008115159050919050565b6000819050919050565b6000819050612500826126bd565b919050565b600073ffffffffffffffffffffffffffffffffffffffff82169050919050565b6000819050919050565b600061253a826124f2565b9050919050565b82818337600083830152505050565b60005b8381101561256e578082015181840152602081019050612553565b8381111561257d576000848401525b50505050565b6000600282049050600182168061259b57607f821691505b602082108114156125af576125ae61264e565b5b50919050565b6125be826126ac565b810181811067ffffffffffffffff821117156125dd576125dc61267d565b5b80604052505050565b6000819050919050565b7f4e487b7100000000000000000000000000000000000000000000000000000000600052601160045260246000fd5b7f4e487b7100000000000000000000000000000000000000000000000000000000600052602160045260246000fd5b7f4e487b7100000000000000000000000000000000000000000000000000000000600052602260045260246000fd5b7f4e487b7100000000000000000000000000000000000000000000000000000000600052604160045260246000fd5b6000601f19601f8301169050919050565b600881106126ce576126cd61261f565b5b50565b6126da816124ca565b81146126e557600080fd5b50565b6126f181612525565b81146126fc57600080fd5b5056fea264697066735822122075fa0f3bf1b00be5ad04bc5f5bf33882f955ed0c706a77d6aa1a6e33872d171264736f6c63430008030033",
  "immutableReferences": {},
  "source": "pragma solidity ^0.8.0;\n\nimport \"./../coffeecore/Ownable.sol\";\nimport \"./../coffeeaccesscontrol/FarmerRole.sol\";\n\n// Define a contract 'Supplychain'\ncontract SupplyChain is Ownable, FarmerRole {\n    // Define 'owner'\n    //address payable owner;\n\n    // Define a variable called 'upc' for Universal Product Code (UPC)\n    uint256 upc;\n\n    // Define a variable called 'sku' for Stock Keeping Unit (SKU)\n    uint256 sku;\n\n    // Define a public mapping 'items' that maps the UPC to an Item.\n    mapping(uint256 => Item) items;\n\n    // Define a public mapping 'itemsHistory' that maps the UPC to an array of TxHash,\n    // that track its journey through the supply chain -- to be sent from DApp.\n    mapping(uint256 => string[]) itemsHistory;\n\n    // Define enum 'State' with the following values:\n    enum State {\n        Harvested, // 0\n        Processed, // 1\n        Packed, // 2\n        ForSale, // 3\n        Sold, // 4\n        Shipped, // 5\n        Received, // 6\n        Purchased // 7\n    }\n\n    State constant defaultState = State.Harvested;\n\n    // Define a struct 'Item' with the following fields:\n    struct Item {\n        uint256 sku; // Stock Keeping Unit (SKU)\n        uint256 upc; // Universal Product Code (UPC), generated by the Farmer, goes on the package, can be verified by the Consumer\n        address ownerID; // Metamask-Ethereum address of the current owner as the product moves through 8 stages\n        address originFarmerID; // Metamask-Ethereum address of the Farmer\n        string originFarmName; // Farmer Name\n        string originFarmInformation; // Farmer Information\n        string originFarmLatitude; // Farm Latitude\n        string originFarmLongitude; // Farm Longitude\n        bytes32 productID; // Product ID potentially a combination of upc + sku\n        string productNotes; // Product Notes\n        uint256 productPrice; // Product Price\n        State state; // Product State as represented in the enum above\n        address distributorID; // Metamask-Ethereum address of the Distributor\n        address retailerID; // Metamask-Ethereum address of the Retailer\n        address consumerID; // Metamask-Ethereum address of the Consumer\n    }\n\n    // Define 8 events with the same 8 state values and accept 'upc' as input argument\n    event Harvested(uint256 upc);\n    event Processed(uint256 upc);\n    event Packed(uint256 upc);\n    event ForSale(uint256 upc);\n    event Sold(uint256 upc);\n    event Shipped(uint256 upc);\n    event Received(uint256 upc);\n    event Purchased(uint256 upc);\n\n    // Define a modifer that verifies the Caller\n    modifier verifyCaller(address _address) {\n        require(msg.sender == _address);\n        _;\n    }\n\n    // Define a modifier that checks if the paid amount is sufficient to cover the price\n    modifier paidEnough(uint256 _price) {\n        require(msg.value >= _price);\n        _;\n    }\n\n    // Define a modifier that checks the price and refunds the remaining balance\n    modifier checkValue(uint256 _upc) {\n        _;\n        uint256 _price = items[_upc].productPrice;\n        uint256 amountToReturn = msg.value - _price;\n        payable(items[_upc].consumerID).transfer(amountToReturn);\n    }\n\n    // Define a modifier that checks if an item.state of a upc is Harvested\n    modifier harvested(uint256 _upc) {\n        require(items[_upc].state == State.Harvested);\n        _;\n    }\n\n    // Define a modifier that checks if an item.state of a upc is Processed\n    modifier processed(uint256 _upc) {\n        require(items[_upc].state == State.Processed);\n        _;\n    }\n\n    // Define a modifier that checks if an item.state of a upc is Packed\n    modifier packed(uint256 _upc) {\n        require(items[_upc].state == State.Packed);\n        _;\n    }\n\n    // Define a modifier that checks if an item.state of a upc is ForSale\n    modifier forSale(uint256 _upc) {\n        require(items[_upc].state == State.ForSale);\n        _;\n    }\n\n    // Define a modifier that checks if an item.state of a upc is Sold\n    modifier sold(uint256 _upc) {\n        require(items[_upc].state == State.Sold);\n        _;\n    }\n\n    // Define a modifier that checks if an item.state of a upc is Shipped\n    modifier shipped(uint256 _upc) {\n        require(items[_upc].state == State.Shipped);\n        _;\n    }\n\n    // Define a modifier that checks if an item.state of a upc is Received\n    modifier received(uint256 _upc) {\n        require(items[_upc].state == State.Received);\n        _;\n    }\n\n    // Define a modifier that checks if an item.state of a upc is Purchased\n    modifier purchased(uint256 _upc) {\n        require(items[_upc].state == State.Purchased);\n        _;\n    }\n\n    // In the constructor set 'owner' to the address that instantiated the contract\n    // and set 'sku' to 1\n    // and set 'upc' to 1\n    constructor() {\n        sku = 1;\n        upc = 1;\n    }\n\n    // Define a function 'kill' if required\n    function kill() public {\n        if (msg.sender == owner()) {\n            selfdestruct(payable(owner()));\n        }\n    }\n\n    // Define a function 'harvestItem' that allows a farmer to mark an item 'Harvested'\n    function harvestItem(\n        uint256 _upc,\n        address _originFarmerID,\n        string memory _originFarmName,\n        string memory _originFarmInformation,\n        string memory _originFarmLatitude,\n        string memory _originFarmLongitude,\n        string memory _productNotes\n    ) public onlyOwner() {\n     /*   require(\n            isFarmer(_originFarmerID),\n            \"_originFarmerID should be address of farmer\"\n        );*/\n        // Add the new item as part of Harvest\n        Item memory item;\n        item.sku = sku;\n        item.upc = _upc;\n        item.ownerID = _originFarmerID;\n        item.originFarmerID = _originFarmerID;\n        item.originFarmName = _originFarmName;\n        item.originFarmInformation = _originFarmInformation;\n        item.originFarmLatitude = _originFarmLatitude;\n        item.originFarmLongitude = _originFarmLongitude;\n        item.productID = keccak256(abi.encodePacked(sku, _upc));\n        item.productNotes = _productNotes;\n        item.state = defaultState;\n\n        items[_upc] = item;\n        itemsHistory[_upc].push(string(abi.encode(item))); //;\n        // Increment sku\n        sku += 1;\n        // Emit the appropriate event\n        emit Harvested(item.upc);\n    }\n\n    // Define a function 'processtItem' that allows a farmer to mark an item 'Processed'\n    function processItem(uint256 _upc)\n        public\n    // Call modifier to check if upc has passed previous supply chain stage\n\n    // Call modifier to verify caller of this function\n\n    {\n        // Update the appropriate fields\n        // Emit the appropriate event\n    }\n\n    // Define a function 'packItem' that allows a farmer to mark an item 'Packed'\n    function packItem(uint256 _upc)\n        public\n    // Call modifier to check if upc has passed previous supply chain stage\n\n    // Call modifier to verify caller of this function\n\n    {\n        // Update the appropriate fields\n        // Emit the appropriate event\n    }\n\n    // Define a function 'sellItem' that allows a farmer to mark an item 'ForSale'\n    function sellItem(uint256 _upc, uint256 _price)\n        public\n    // Call modifier to check if upc has passed previous supply chain stage\n\n    // Call modifier to verify caller of this function\n\n    {\n        // Update the appropriate fields\n        // Emit the appropriate event\n    }\n\n    // Define a function 'buyItem' that allows the disributor to mark an item 'Sold'\n    // Use the above defined modifiers to check if the item is available for sale, if the buyer has paid enough,\n    // and any excess ether sent is refunded back to the buyer\n    function buyItem(uint256 _upc)\n        public\n        payable\n    // Call modifier to check if upc has passed previous supply chain stage\n\n    // Call modifer to check if buyer has paid enough\n\n    // Call modifer to send any excess ether back to buyer\n\n    {\n        // Update the appropriate fields - ownerID, distributorID, itemState\n        // Transfer money to farmer\n        // emit the appropriate event\n    }\n\n    // Define a function 'shipItem' that allows the distributor to mark an item 'Shipped'\n    // Use the above modifers to check if the item is sold\n    function shipItem(uint256 _upc)\n        public\n    // Call modifier to check if upc has passed previous supply chain stage\n\n    // Call modifier to verify caller of this function\n\n    {\n        // Update the appropriate fields\n        // Emit the appropriate event\n    }\n\n    // Define a function 'receiveItem' that allows the retailer to mark an item 'Received'\n    // Use the above modifiers to check if the item is shipped\n    function receiveItem(uint256 _upc)\n        public\n    // Call modifier to check if upc has passed previous supply chain stage\n\n    // Access Control List enforced by calling Smart Contract / DApp\n    {\n        // Update the appropriate fields - ownerID, retailerID, itemState\n        // Emit the appropriate event\n    }\n\n    // Define a function 'purchaseItem' that allows the consumer to mark an item 'Purchased'\n    // Use the above modifiers to check if the item is received\n    function purchaseItem(uint256 _upc)\n        public\n    // Call modifier to check if upc has passed previous supply chain stage\n\n    // Access Control List enforced by calling Smart Contract / DApp\n    {\n        // Update the appropriate fields - ownerID, consumerID, itemState\n        // Emit the appropriate event\n    }\n\n    // Define a function 'fetchItemBufferOne' that fetches the data\n    function fetchItemBufferOne(uint256 _upc)\n        public\n        view\n        returns (\n            uint256 itemSKU,\n            uint256 itemUPC,\n            address ownerID,\n            address originFarmerID,\n            string memory originFarmName,\n            string memory originFarmInformation,\n            string memory originFarmLatitude,\n            string memory originFarmLongitude\n        )\n    {\n        // Assign values to the 8 parameters\n        Item memory item = items[_upc];\n        return (\n            item.sku,\n            item.upc,\n            item.ownerID,\n            item.originFarmerID,\n            item.originFarmName,\n            item.originFarmInformation,\n            item.originFarmLatitude,\n            item.originFarmLongitude\n        );\n    }\n\n    // Define a function 'fetchItemBufferTwo' that fetches the data\n    function fetchItemBufferTwo(uint256 _upc)\n        public\n        view\n        returns (\n            uint256 itemSKU,\n            uint256 itemUPC,\n            bytes32 productID,\n            string memory productNotes,\n            uint256 productPrice,\n            State itemState,\n            address distributorID,\n            address retailerID,\n            address consumerID\n        )\n    {\n        // Assign values to the 9 parameters\n        Item memory item = items[_upc];\n        return (\n            item.sku,\n            item.upc,\n            item.productID,\n            item.productNotes,\n            item.productPrice,\n            item.state,\n            item.distributorID,\n            item.retailerID,\n            item.consumerID\n        );\n    }\n}\n",
  "sourcePath": "/Users/sergeygordeev/work/study/BlockChain/Udacity/udacity-supply-chain/project-6/contracts/coffeebase/SupplyChain.sol",
  "compiler": {
    "name": "solc",
    "version": "0.8.3+commit.8d00100c.Emscripten.clang"
  },
  "schemaVersion": "3.4.0",
  "updatedAt": "2021-04-28T06:36:30.793Z",
  "devdoc": {
    "kind": "dev",
    "methods": {},
    "version": 1
  },
  "userdoc": {
    "kind": "user",
    "methods": {
      "isOwner()": {
        "notice": "Check if the calling address is the owner of the contract"
      },
      "owner()": {
        "notice": "Look up the address of the owner"
      },
      "renounceOwnership()": {
        "notice": "Define a function to renounce ownerhip"
      },
      "transferOwnership(address)": {
        "notice": "Define a public function to transfer ownership"
      }
    },
    "version": 1
  }
}