{
  "contractName": "SupplyChain",
  "abi": [
    {
      "inputs": [
        {
          "internalType": "address",
          "name": "farmerRoleContractAddress",
          "type": "address"
        },
        {
          "internalType": "address",
          "name": "distibutorRoleContractAddress",
          "type": "address"
        },
        {
          "internalType": "address",
          "name": "retailerRoleContractAddress",
          "type": "address"
        },
        {
          "internalType": "address",
          "name": "consumerRoleContractAddress",
          "type": "address"
        }
      ],
      "stateMutability": "nonpayable",
      "type": "constructor"
    },
    {
      "anonymous": false,
      "inputs": [
        {
          "indexed": false,
          "internalType": "uint256",
          "name": "upc",
          "type": "uint256"
        }
      ],
      "name": "ForSale",
      "type": "event"
    },
    {
      "anonymous": false,
      "inputs": [
        {
          "indexed": false,
          "internalType": "uint256",
          "name": "upc",
          "type": "uint256"
        }
      ],
      "name": "Harvested",
      "type": "event"
    },
    {
      "anonymous": false,
      "inputs": [
        {
          "indexed": false,
          "internalType": "uint256",
          "name": "upc",
          "type": "uint256"
        }
      ],
      "name": "Packed",
      "type": "event"
    },
    {
      "anonymous": false,
      "inputs": [
        {
          "indexed": false,
          "internalType": "uint256",
          "name": "upc",
          "type": "uint256"
        }
      ],
      "name": "Processed",
      "type": "event"
    },
    {
      "anonymous": false,
      "inputs": [
        {
          "indexed": false,
          "internalType": "uint256",
          "name": "upc",
          "type": "uint256"
        }
      ],
      "name": "Purchased",
      "type": "event"
    },
    {
      "anonymous": false,
      "inputs": [
        {
          "indexed": false,
          "internalType": "uint256",
          "name": "upc",
          "type": "uint256"
        }
      ],
      "name": "Received",
      "type": "event"
    },
    {
      "anonymous": false,
      "inputs": [
        {
          "indexed": false,
          "internalType": "uint256",
          "name": "upc",
          "type": "uint256"
        }
      ],
      "name": "Shipped",
      "type": "event"
    },
    {
      "anonymous": false,
      "inputs": [
        {
          "indexed": false,
          "internalType": "uint256",
          "name": "upc",
          "type": "uint256"
        }
      ],
      "name": "Sold",
      "type": "event"
    },
    {
      "anonymous": false,
      "inputs": [
        {
          "indexed": true,
          "internalType": "address",
          "name": "oldOwner",
          "type": "address"
        },
        {
          "indexed": true,
          "internalType": "address",
          "name": "newOwner",
          "type": "address"
        }
      ],
      "name": "TransferOwnership",
      "type": "event"
    },
    {
      "inputs": [],
      "name": "isOwner",
      "outputs": [
        {
          "internalType": "bool",
          "name": "",
          "type": "bool"
        }
      ],
      "stateMutability": "view",
      "type": "function",
      "constant": true
    },
    {
      "inputs": [],
      "name": "owner",
      "outputs": [
        {
          "internalType": "address",
          "name": "",
          "type": "address"
        }
      ],
      "stateMutability": "view",
      "type": "function",
      "constant": true
    },
    {
      "inputs": [],
      "name": "renounceOwnership",
      "outputs": [],
      "stateMutability": "nonpayable",
      "type": "function"
    },
    {
      "inputs": [
        {
          "internalType": "address",
          "name": "newOwner",
          "type": "address"
        }
      ],
      "name": "transferOwnership",
      "outputs": [],
      "stateMutability": "nonpayable",
      "type": "function"
    },
    {
      "stateMutability": "payable",
      "type": "receive",
      "payable": true
    },
    {
      "inputs": [],
      "name": "kill",
      "outputs": [],
      "stateMutability": "nonpayable",
      "type": "function"
    },
    {
      "inputs": [
        {
          "internalType": "uint256",
          "name": "_upc",
          "type": "uint256"
        },
        {
          "internalType": "address",
          "name": "_originFarmerID",
          "type": "address"
        },
        {
          "internalType": "string",
          "name": "_originFarmName",
          "type": "string"
        },
        {
          "internalType": "string",
          "name": "_originFarmInformation",
          "type": "string"
        },
        {
          "internalType": "string",
          "name": "_originFarmLatitude",
          "type": "string"
        },
        {
          "internalType": "string",
          "name": "_originFarmLongitude",
          "type": "string"
        },
        {
          "internalType": "string",
          "name": "_productNotes",
          "type": "string"
        }
      ],
      "name": "harvestItem",
      "outputs": [],
      "stateMutability": "nonpayable",
      "type": "function"
    },
    {
      "inputs": [
        {
          "internalType": "uint256",
          "name": "_upc",
          "type": "uint256"
        }
      ],
      "name": "processItem",
      "outputs": [],
      "stateMutability": "nonpayable",
      "type": "function"
    },
    {
      "inputs": [
        {
          "internalType": "uint256",
          "name": "_upc",
          "type": "uint256"
        }
      ],
      "name": "packItem",
      "outputs": [],
      "stateMutability": "nonpayable",
      "type": "function"
    },
    {
      "inputs": [
        {
          "internalType": "uint256",
          "name": "_upc",
          "type": "uint256"
        },
        {
          "internalType": "uint256",
          "name": "_price",
          "type": "uint256"
        }
      ],
      "name": "sellItem",
      "outputs": [],
      "stateMutability": "nonpayable",
      "type": "function"
    },
    {
      "inputs": [
        {
          "internalType": "uint256",
          "name": "_upc",
          "type": "uint256"
        }
      ],
      "name": "buyItem",
      "outputs": [],
      "stateMutability": "payable",
      "type": "function",
      "payable": true
    },
    {
      "inputs": [
        {
          "internalType": "uint256",
          "name": "_upc",
          "type": "uint256"
        }
      ],
      "name": "shipItem",
      "outputs": [],
      "stateMutability": "nonpayable",
      "type": "function"
    },
    {
      "inputs": [
        {
          "internalType": "uint256",
          "name": "_upc",
          "type": "uint256"
        }
      ],
      "name": "receiveItem",
      "outputs": [],
      "stateMutability": "nonpayable",
      "type": "function"
    },
    {
      "inputs": [
        {
          "internalType": "uint256",
          "name": "_upc",
          "type": "uint256"
        }
      ],
      "name": "purchaseItem",
      "outputs": [],
      "stateMutability": "nonpayable",
      "type": "function"
    },
    {
      "inputs": [
        {
          "internalType": "uint256",
          "name": "_upc",
          "type": "uint256"
        }
      ],
      "name": "fetchItemBufferOne",
      "outputs": [
        {
          "internalType": "uint256",
          "name": "itemSKU",
          "type": "uint256"
        },
        {
          "internalType": "uint256",
          "name": "itemUPC",
          "type": "uint256"
        },
        {
          "internalType": "address",
          "name": "ownerID",
          "type": "address"
        },
        {
          "internalType": "address",
          "name": "originFarmerID",
          "type": "address"
        },
        {
          "internalType": "string",
          "name": "originFarmName",
          "type": "string"
        },
        {
          "internalType": "string",
          "name": "originFarmInformation",
          "type": "string"
        },
        {
          "internalType": "string",
          "name": "originFarmLatitude",
          "type": "string"
        },
        {
          "internalType": "string",
          "name": "originFarmLongitude",
          "type": "string"
        }
      ],
      "stateMutability": "view",
      "type": "function",
      "constant": true
    },
    {
      "inputs": [
        {
          "internalType": "uint256",
          "name": "_upc",
          "type": "uint256"
        }
      ],
      "name": "fetchItemBufferTwo",
      "outputs": [
        {
          "internalType": "uint256",
          "name": "itemSKU",
          "type": "uint256"
        },
        {
          "internalType": "uint256",
          "name": "itemUPC",
          "type": "uint256"
        },
        {
          "internalType": "bytes32",
          "name": "productID",
          "type": "bytes32"
        },
        {
          "internalType": "string",
          "name": "productNotes",
          "type": "string"
        },
        {
          "internalType": "uint256",
          "name": "productPrice",
          "type": "uint256"
        },
        {
          "internalType": "enum SupplyChain.State",
          "name": "itemState",
          "type": "uint8"
        },
        {
          "internalType": "address",
          "name": "distributorID",
          "type": "address"
        },
        {
          "internalType": "address",
          "name": "retailerID",
          "type": "address"
        },
        {
          "internalType": "address",
          "name": "consumerID",
          "type": "address"
        }
      ],
      "stateMutability": "view",
      "type": "function",
      "constant": true
    }
  ],
  "bytecode": "0x60806040523480156200001157600080fd5b5060405162003a1038038062003a10833981810160405281019062000037919062000227565b336000806101000a81548173ffffffffffffffffffffffffffffffffffffffff021916908373ffffffffffffffffffffffffffffffffffffffff16021790555060008054906101000a900473ffffffffffffffffffffffffffffffffffffffff1673ffffffffffffffffffffffffffffffffffffffff16600073ffffffffffffffffffffffffffffffffffffffff167f5c486528ec3e3f0ea91181cff8116f02bfa350e03b8b6f12e00765adbb5af85c60405160405180910390a383600160006101000a81548173ffffffffffffffffffffffffffffffffffffffff021916908373ffffffffffffffffffffffffffffffffffffffff16021790555082600260006101000a81548173ffffffffffffffffffffffffffffffffffffffff021916908373ffffffffffffffffffffffffffffffffffffffff16021790555081600360006101000a81548173ffffffffffffffffffffffffffffffffffffffff021916908373ffffffffffffffffffffffffffffffffffffffff16021790555080600460006101000a81548173ffffffffffffffffffffffffffffffffffffffff021916908373ffffffffffffffffffffffffffffffffffffffff1602179055506001600681905550600160058190555050505050620002e1565b6000815190506200022181620002c7565b92915050565b600080600080608085870312156200023e57600080fd5b60006200024e8782880162000210565b9450506020620002618782880162000210565b9350506040620002748782880162000210565b9250506060620002878782880162000210565b91505092959194509250565b6000620002a082620002a7565b9050919050565b600073ffffffffffffffffffffffffffffffffffffffff82169050919050565b620002d28162000293565b8114620002de57600080fd5b50565b61371f80620002f16000396000f3fe6080604052600436106100ec5760003560e01c80638f32d59b1161008a578063e7fb74c711610059578063e7fb74c7146102d2578063f2fde38b146102ee578063f30fc48014610317578063f61c899a14610340576100f3565b80638f32d59b1461022c578063a26be99914610257578063bdd8a6a814610280578063d38ea5bf146102a9576100f3565b806366225ff9116100c657806366225ff914610161578063715018a6146101a657806377c45913146101bd5780638da5cb5b14610201576100f3565b80632d923561146100f857806341c0e1b51461012157806349dae76614610138576100f3565b366100f357005b600080fd5b34801561010457600080fd5b5061011f600480360381019061011a9190612e3e565b610369565b005b34801561012d57600080fd5b506101366105ec565b005b34801561014457600080fd5b5061015f600480360381019061015a9190612cff565b610649565b005b34801561016d57600080fd5b5061018860048036038101906101839190612cff565b6107fa565b60405161019d9998979695949392919061328e565b60405180910390f35b3480156101b257600080fd5b506101bb610db6565b005b3480156101c957600080fd5b506101e460048036038101906101df9190612cff565b610e85565b6040516101f89897969594939291906131f4565b60405180910390f35b34801561020d57600080fd5b5061021661142f565b6040516102239190613118565b60405180910390f35b34801561023857600080fd5b50610241611458565b60405161024e9190613133565b60405180910390f35b34801561026357600080fd5b5061027e60048036038101906102799190612cff565b6114af565b005b34801561028c57600080fd5b506102a760048036038101906102a29190612d28565b61174e565b005b3480156102b557600080fd5b506102d060048036038101906102cb9190612cff565b611d25565b005b6102ec60048036038101906102e79190612cff565b611fc3565b005b3480156102fa57600080fd5b5061031560048036038101906103109190612cad565b612466565b005b34801561032357600080fd5b5061033e60048036038101906103399190612cff565b612483565b005b34801561034c57600080fd5b5061036760048036038101906103629190612cff565b6126e8565b005b600160009054906101000a900473ffffffffffffffffffffffffffffffffffffffff1673ffffffffffffffffffffffffffffffffffffffff1663db5a3f23336040518263ffffffff1660e01b81526004016103c49190613118565b60206040518083038186803b1580156103dc57600080fd5b505afa1580156103f0573d6000803e3d6000fd5b505050506040513d601f19601f820116820180604052508101906104149190612cd6565b61041d57600080fd5b8160026007811115610458577f4e487b7100000000000000000000000000000000000000000000000000000000600052602160045260246000fd5b60076000838152602001908152602001600020600b0160009054906101000a900460ff1660078111156104b4577f4e487b7100000000000000000000000000000000000000000000000000000000600052602160045260246000fd5b146104be57600080fd5b6007600084815260200190815260200160002060020160009054906101000a900473ffffffffffffffffffffffffffffffffffffffff168073ffffffffffffffffffffffffffffffffffffffff163373ffffffffffffffffffffffffffffffffffffffff161461052d57600080fd5b600360076000868152602001908152602001600020600b0160006101000a81548160ff0219169083600781111561058d577f4e487b7100000000000000000000000000000000000000000000000000000000600052602160045260246000fd5b02179055508260076000868152602001908152602001600020600a01819055507fa96ae0fc3224ebd79eebfe54bd130cc9cb94416cddd1f2386115e00b725324686005546040516105de91906131b0565b60405180910390a150505050565b6105f461142f565b73ffffffffffffffffffffffffffffffffffffffff163373ffffffffffffffffffffffffffffffffffffffff1614156106475761062f61142f565b73ffffffffffffffffffffffffffffffffffffffff16ff5b565b8060006007811115610684577f4e487b7100000000000000000000000000000000000000000000000000000000600052602160045260246000fd5b60076000838152602001908152602001600020600b0160009054906101000a900460ff1660078111156106e0577f4e487b7100000000000000000000000000000000000000000000000000000000600052602160045260246000fd5b146106ea57600080fd5b6007600083815260200190815260200160002060020160009054906101000a900473ffffffffffffffffffffffffffffffffffffffff168073ffffffffffffffffffffffffffffffffffffffff163373ffffffffffffffffffffffffffffffffffffffff161461075957600080fd5b600160076000858152602001908152602001600020600b0160006101000a81548160ff021916908360078111156107b9577f4e487b7100000000000000000000000000000000000000000000000000000000600052602160045260246000fd5b02179055507f5afe3b1bf87069693c075da5c22a98d63d1aef98a30dbbe538d0781a98b77ee5836040516107ed91906131b0565b60405180910390a1505050565b60008060006060600080600080600080600760008c8152602001908152602001600020604051806101e001604052908160008201548152602001600182015481526020016002820160009054906101000a900473ffffffffffffffffffffffffffffffffffffffff1673ffffffffffffffffffffffffffffffffffffffff1673ffffffffffffffffffffffffffffffffffffffff1681526020016003820160009054906101000a900473ffffffffffffffffffffffffffffffffffffffff1673ffffffffffffffffffffffffffffffffffffffff1673ffffffffffffffffffffffffffffffffffffffff1681526020016004820180546108f9906134e8565b80601f0160208091040260200160405190810160405280929190818152602001828054610925906134e8565b80156109725780601f1061094757610100808354040283529160200191610972565b820191906000526020600020905b81548152906001019060200180831161095557829003601f168201915b5050505050815260200160058201805461098b906134e8565b80601f01602080910402602001604051908101604052809291908181526020018280546109b7906134e8565b8015610a045780601f106109d957610100808354040283529160200191610a04565b820191906000526020600020905b8154815290600101906020018083116109e757829003601f168201915b50505050508152602001600682018054610a1d906134e8565b80601f0160208091040260200160405190810160405280929190818152602001828054610a49906134e8565b8015610a965780601f10610a6b57610100808354040283529160200191610a96565b820191906000526020600020905b815481529060010190602001808311610a7957829003601f168201915b50505050508152602001600782018054610aaf906134e8565b80601f0160208091040260200160405190810160405280929190818152602001828054610adb906134e8565b8015610b285780601f10610afd57610100808354040283529160200191610b28565b820191906000526020600020905b815481529060010190602001808311610b0b57829003601f168201915b5050505050815260200160088201548152602001600982018054610b4b906134e8565b80601f0160208091040260200160405190810160405280929190818152602001828054610b77906134e8565b8015610bc45780601f10610b9957610100808354040283529160200191610bc4565b820191906000526020600020905b815481529060010190602001808311610ba757829003601f168201915b50505050508152602001600a8201548152602001600b820160009054906101000a900460ff166007811115610c22577f4e487b7100000000000000000000000000000000000000000000000000000000600052602160045260246000fd5b6007811115610c5a577f4e487b7100000000000000000000000000000000000000000000000000000000600052602160045260246000fd5b8152602001600b820160019054906101000a900473ffffffffffffffffffffffffffffffffffffffff1673ffffffffffffffffffffffffffffffffffffffff1673ffffffffffffffffffffffffffffffffffffffff168152602001600c820160009054906101000a900473ffffffffffffffffffffffffffffffffffffffff1673ffffffffffffffffffffffffffffffffffffffff1673ffffffffffffffffffffffffffffffffffffffff168152602001600d820160009054906101000a900473ffffffffffffffffffffffffffffffffffffffff1673ffffffffffffffffffffffffffffffffffffffff1673ffffffffffffffffffffffffffffffffffffffff1681525050905080600001518160200151826101000151836101200151846101400151856101600151866101800151876101a00151886101c00151995099509950995099509950995099509950509193959799909294969850565b610dbe611458565b610dc757600080fd5b600073ffffffffffffffffffffffffffffffffffffffff1660008054906101000a900473ffffffffffffffffffffffffffffffffffffffff1673ffffffffffffffffffffffffffffffffffffffff167f5c486528ec3e3f0ea91181cff8116f02bfa350e03b8b6f12e00765adbb5af85c60405160405180910390a360008060006101000a81548173ffffffffffffffffffffffffffffffffffffffff021916908373ffffffffffffffffffffffffffffffffffffffff160217905550565b6000806000806060806060806000600760008b8152602001908152602001600020604051806101e001604052908160008201548152602001600182015481526020016002820160009054906101000a900473ffffffffffffffffffffffffffffffffffffffff1673ffffffffffffffffffffffffffffffffffffffff1673ffffffffffffffffffffffffffffffffffffffff1681526020016003820160009054906101000a900473ffffffffffffffffffffffffffffffffffffffff1673ffffffffffffffffffffffffffffffffffffffff1673ffffffffffffffffffffffffffffffffffffffff168152602001600482018054610f82906134e8565b80601f0160208091040260200160405190810160405280929190818152602001828054610fae906134e8565b8015610ffb5780601f10610fd057610100808354040283529160200191610ffb565b820191906000526020600020905b815481529060010190602001808311610fde57829003601f168201915b50505050508152602001600582018054611014906134e8565b80601f0160208091040260200160405190810160405280929190818152602001828054611040906134e8565b801561108d5780601f106110625761010080835404028352916020019161108d565b820191906000526020600020905b81548152906001019060200180831161107057829003601f168201915b505050505081526020016006820180546110a6906134e8565b80601f01602080910402602001604051908101604052809291908181526020018280546110d2906134e8565b801561111f5780601f106110f45761010080835404028352916020019161111f565b820191906000526020600020905b81548152906001019060200180831161110257829003601f168201915b50505050508152602001600782018054611138906134e8565b80601f0160208091040260200160405190810160405280929190818152602001828054611164906134e8565b80156111b15780601f10611186576101008083540402835291602001916111b1565b820191906000526020600020905b81548152906001019060200180831161119457829003601f168201915b50505050508152602001600882015481526020016009820180546111d4906134e8565b80601f0160208091040260200160405190810160405280929190818152602001828054611200906134e8565b801561124d5780601f106112225761010080835404028352916020019161124d565b820191906000526020600020905b81548152906001019060200180831161123057829003601f168201915b50505050508152602001600a8201548152602001600b820160009054906101000a900460ff1660078111156112ab577f4e487b7100000000000000000000000000000000000000000000000000000000600052602160045260246000fd5b60078111156112e3577f4e487b7100000000000000000000000000000000000000000000000000000000600052602160045260246000fd5b8152602001600b820160019054906101000a900473ffffffffffffffffffffffffffffffffffffffff1673ffffffffffffffffffffffffffffffffffffffff1673ffffffffffffffffffffffffffffffffffffffff168152602001600c820160009054906101000a900473ffffffffffffffffffffffffffffffffffffffff1673ffffffffffffffffffffffffffffffffffffffff1673ffffffffffffffffffffffffffffffffffffffff168152602001600d820160009054906101000a900473ffffffffffffffffffffffffffffffffffffffff1673ffffffffffffffffffffffffffffffffffffffff1673ffffffffffffffffffffffffffffffffffffffff16815250509050806000015181602001518260400151836060015184608001518560a001518660c001518760e001519850985098509850985098509850985050919395975091939597565b60008060009054906101000a900473ffffffffffffffffffffffffffffffffffffffff16905090565b60008060009054906101000a900473ffffffffffffffffffffffffffffffffffffffff1673ffffffffffffffffffffffffffffffffffffffff163373ffffffffffffffffffffffffffffffffffffffff1614905090565b80600560078111156114ea577f4e487b7100000000000000000000000000000000000000000000000000000000600052602160045260246000fd5b60076000838152602001908152602001600020600b0160009054906101000a900460ff166007811115611546577f4e487b7100000000000000000000000000000000000000000000000000000000600052602160045260246000fd5b1461155057600080fd5b600360009054906101000a900473ffffffffffffffffffffffffffffffffffffffff1673ffffffffffffffffffffffffffffffffffffffff1663db5a3f23336040518263ffffffff1660e01b81526004016115ab9190613118565b60206040518083038186803b1580156115c357600080fd5b505afa1580156115d7573d6000803e3d6000fd5b505050506040513d601f19601f820116820180604052508101906115fb9190612cd6565b61160457600080fd5b600660076000848152602001908152602001600020600b0160006101000a81548160ff02191690836007811115611664577f4e487b7100000000000000000000000000000000000000000000000000000000600052602160045260246000fd5b0217905550336007600084815260200190815260200160002060020160006101000a81548173ffffffffffffffffffffffffffffffffffffffff021916908373ffffffffffffffffffffffffffffffffffffffff1602179055503360076000848152602001908152602001600020600c0160006101000a81548173ffffffffffffffffffffffffffffffffffffffff021916908373ffffffffffffffffffffffffffffffffffffffff1602179055507fa8142743f8f70a4c26f3691cf4ed59718381fb2f18070ec52be1f1022d8555578260405161174291906131b0565b60405180910390a15050565b600160009054906101000a900473ffffffffffffffffffffffffffffffffffffffff1673ffffffffffffffffffffffffffffffffffffffff1663db5a3f23336040518263ffffffff1660e01b81526004016117a99190613118565b60206040518083038186803b1580156117c157600080fd5b505afa1580156117d5573d6000803e3d6000fd5b505050506040513d601f19601f820116820180604052508101906117f99190612cd6565b61180257600080fd5b600060076000898152602001908152602001600020600001541461185b576040517f08c379a00000000000000000000000000000000000000000000000000000000081526004016118529061314e565b60405180910390fd5b611863612a44565b6006548160000181815250508781602001818152505086816040019073ffffffffffffffffffffffffffffffffffffffff16908173ffffffffffffffffffffffffffffffffffffffff168152505086816060019073ffffffffffffffffffffffffffffffffffffffff16908173ffffffffffffffffffffffffffffffffffffffff1681525050858160800181905250848160a00181905250838160c00181905250828160e00181905250600654886040516020016119229291906131cb565b6040516020818303038152906040528051906020012081610100018181525050818161012001819052506000816101600190600781111561198c577f4e487b7100000000000000000000000000000000000000000000000000000000600052602160045260246000fd5b908160078111156119c6577f4e487b7100000000000000000000000000000000000000000000000000000000600052602160045260246000fd5b8152505080600760008a8152602001908152602001600020600082015181600001556020820151816001015560408201518160020160006101000a81548173ffffffffffffffffffffffffffffffffffffffff021916908373ffffffffffffffffffffffffffffffffffffffff16021790555060608201518160030160006101000a81548173ffffffffffffffffffffffffffffffffffffffff021916908373ffffffffffffffffffffffffffffffffffffffff1602179055506080820151816004019080519060200190611a9c929190612b63565b5060a0820151816005019080519060200190611ab9929190612b63565b5060c0820151816006019080519060200190611ad6929190612b63565b5060e0820151816007019080519060200190611af3929190612b63565b506101008201518160080155610120820151816009019080519060200190611b1c929190612b63565b5061014082015181600a015561016082015181600b0160006101000a81548160ff02191690836007811115611b7a577f4e487b7100000000000000000000000000000000000000000000000000000000600052602160045260246000fd5b021790555061018082015181600b0160016101000a81548173ffffffffffffffffffffffffffffffffffffffff021916908373ffffffffffffffffffffffffffffffffffffffff1602179055506101a082015181600c0160006101000a81548173ffffffffffffffffffffffffffffffffffffffff021916908373ffffffffffffffffffffffffffffffffffffffff1602179055506101c082015181600d0160006101000a81548173ffffffffffffffffffffffffffffffffffffffff021916908373ffffffffffffffffffffffffffffffffffffffff1602179055509050506008600089815260200190815260200160002081604051602001611c7e919061318e565b604051602081830303815290604052908060018154018082558091505060019003906000526020600020016000909190919091509080519060200190611cc5929190612b63565b50600160066000828254611cd991906133a5565b925050819055507f8e55ccfc9778ff8eba1646d765cf1982537ce0f9257054a17b48aad7452501838160200151604051611d1391906131b0565b60405180910390a15050505050505050565b8060066007811115611d60577f4e487b7100000000000000000000000000000000000000000000000000000000600052602160045260246000fd5b60076000838152602001908152602001600020600b0160009054906101000a900460ff166007811115611dbc577f4e487b7100000000000000000000000000000000000000000000000000000000600052602160045260246000fd5b14611dc657600080fd5b600460009054906101000a900473ffffffffffffffffffffffffffffffffffffffff1673ffffffffffffffffffffffffffffffffffffffff1663db5a3f23336040518263ffffffff1660e01b8152600401611e219190613118565b60206040518083038186803b158015611e3957600080fd5b505afa158015611e4d573d6000803e3d6000fd5b505050506040513d601f19601f82011682018060405250810190611e719190612cd6565b611e7a57600080fd5b6007806000848152602001908152602001600020600b0160006101000a81548160ff02191690836007811115611ed9577f4e487b7100000000000000000000000000000000000000000000000000000000600052602160045260246000fd5b0217905550336007600084815260200190815260200160002060020160006101000a81548173ffffffffffffffffffffffffffffffffffffffff021916908373ffffffffffffffffffffffffffffffffffffffff1602179055503360076000848152602001908152602001600020600d0160006101000a81548173ffffffffffffffffffffffffffffffffffffffff021916908373ffffffffffffffffffffffffffffffffffffffff1602179055507f653d56639fee6b566a5c804764e9689de38645f0b733df89a36a1b7b42173dd882604051611fb791906131b0565b60405180910390a15050565b600260009054906101000a900473ffffffffffffffffffffffffffffffffffffffff1673ffffffffffffffffffffffffffffffffffffffff1663db5a3f23336040518263ffffffff1660e01b815260040161201e9190613118565b60206040518083038186803b15801561203657600080fd5b505afa15801561204a573d6000803e3d6000fd5b505050506040513d601f19601f8201168201806040525081019061206e9190612cd6565b61207757600080fd5b80600360078111156120b2577f4e487b7100000000000000000000000000000000000000000000000000000000600052602160045260246000fd5b60076000838152602001908152602001600020600b0160009054906101000a900460ff16600781111561210e577f4e487b7100000000000000000000000000000000000000000000000000000000600052602160045260246000fd5b1461211857600080fd5b818034101561212657600080fd5b82600260009054906101000a900473ffffffffffffffffffffffffffffffffffffffff1673ffffffffffffffffffffffffffffffffffffffff1663db5a3f23336040518263ffffffff1660e01b81526004016121829190613118565b60206040518083038186803b15801561219a57600080fd5b505afa1580156121ae573d6000803e3d6000fd5b505050506040513d601f19601f820116820180604052508101906121d29190612cd6565b612211576040517f08c379a00000000000000000000000000000000000000000000000000000000081526004016122089061316e565b60405180910390fd5b600460076000868152602001908152602001600020600b0160006101000a81548160ff02191690836007811115612271577f4e487b7100000000000000000000000000000000000000000000000000000000600052602160045260246000fd5b0217905550336007600086815260200190815260200160002060020160006101000a81548173ffffffffffffffffffffffffffffffffffffffff021916908373ffffffffffffffffffffffffffffffffffffffff1602179055503360076000868152602001908152602001600020600b0160016101000a81548173ffffffffffffffffffffffffffffffffffffffff021916908373ffffffffffffffffffffffffffffffffffffffff1602179055506007600085815260200190815260200160002060030160009054906101000a900473ffffffffffffffffffffffffffffffffffffffff1673ffffffffffffffffffffffffffffffffffffffff166108fc60076000878152602001908152602001600020600a01549081150290604051600060405180830381858888f193505050501580156123b2573d6000803e3d6000fd5b507f92f64ca637d023f354075a4be751b169c1a8a9ccb6d33cdd0cb35205439957276005546040516123e491906131b0565b60405180910390a1600060076000838152602001908152602001600020600a015490506000813461241591906133fb565b90503373ffffffffffffffffffffffffffffffffffffffff166108fc829081150290604051600060405180830381858888f1935050505015801561245d573d6000803e3d6000fd5b50505050505050565b61246e611458565b61247757600080fd5b6124808161294d565b50565b600160009054906101000a900473ffffffffffffffffffffffffffffffffffffffff1673ffffffffffffffffffffffffffffffffffffffff1663db5a3f23336040518263ffffffff1660e01b81526004016124de9190613118565b60206040518083038186803b1580156124f657600080fd5b505afa15801561250a573d6000803e3d6000fd5b505050506040513d601f19601f8201168201806040525081019061252e9190612cd6565b61253757600080fd5b8060016007811115612572577f4e487b7100000000000000000000000000000000000000000000000000000000600052602160045260246000fd5b60076000838152602001908152602001600020600b0160009054906101000a900460ff1660078111156125ce577f4e487b7100000000000000000000000000000000000000000000000000000000600052602160045260246000fd5b146125d857600080fd5b6007600083815260200190815260200160002060020160009054906101000a900473ffffffffffffffffffffffffffffffffffffffff168073ffffffffffffffffffffffffffffffffffffffff163373ffffffffffffffffffffffffffffffffffffffff161461264757600080fd5b600260076000858152602001908152602001600020600b0160006101000a81548160ff021916908360078111156126a7577f4e487b7100000000000000000000000000000000000000000000000000000000600052602160045260246000fd5b02179055507f9b3b66e2380b690bae22c73ef1428fb0c91e72fe14a4b6defa13035214187aff836040516126db91906131b0565b60405180910390a1505050565b600260009054906101000a900473ffffffffffffffffffffffffffffffffffffffff1673ffffffffffffffffffffffffffffffffffffffff1663db5a3f23336040518263ffffffff1660e01b81526004016127439190613118565b60206040518083038186803b15801561275b57600080fd5b505afa15801561276f573d6000803e3d6000fd5b505050506040513d601f19601f820116820180604052508101906127939190612cd6565b61279c57600080fd5b80600460078111156127d7577f4e487b7100000000000000000000000000000000000000000000000000000000600052602160045260246000fd5b60076000838152602001908152602001600020600b0160009054906101000a900460ff166007811115612833577f4e487b7100000000000000000000000000000000000000000000000000000000600052602160045260246000fd5b1461283d57600080fd5b60076000838152602001908152602001600020600b0160019054906101000a900473ffffffffffffffffffffffffffffffffffffffff168073ffffffffffffffffffffffffffffffffffffffff163373ffffffffffffffffffffffffffffffffffffffff16146128ac57600080fd5b600560076000858152602001908152602001600020600b0160006101000a81548160ff0219169083600781111561290c577f4e487b7100000000000000000000000000000000000000000000000000000000600052602160045260246000fd5b02179055507ff00b9a5725b80c54016f42114f6ed7792d22eecb116011c4afac29c57bef6c958360405161294091906131b0565b60405180910390a1505050565b600073ffffffffffffffffffffffffffffffffffffffff168173ffffffffffffffffffffffffffffffffffffffff16141561298757600080fd5b8073ffffffffffffffffffffffffffffffffffffffff1660008054906101000a900473ffffffffffffffffffffffffffffffffffffffff1673ffffffffffffffffffffffffffffffffffffffff167f5c486528ec3e3f0ea91181cff8116f02bfa350e03b8b6f12e00765adbb5af85c60405160405180910390a3806000806101000a81548173ffffffffffffffffffffffffffffffffffffffff021916908373ffffffffffffffffffffffffffffffffffffffff16021790555050565b604051806101e001604052806000815260200160008152602001600073ffffffffffffffffffffffffffffffffffffffff168152602001600073ffffffffffffffffffffffffffffffffffffffff1681526020016060815260200160608152602001606081526020016060815260200160008019168152602001606081526020016000815260200160006007811115612b06577f4e487b7100000000000000000000000000000000000000000000000000000000600052602160045260246000fd5b8152602001600073ffffffffffffffffffffffffffffffffffffffff168152602001600073ffffffffffffffffffffffffffffffffffffffff168152602001600073ffffffffffffffffffffffffffffffffffffffff1681525090565b828054612b6f906134e8565b90600052602060002090601f016020900481019282612b915760008555612bd8565b82601f10612baa57805160ff1916838001178555612bd8565b82800160010185558215612bd8579182015b82811115612bd7578251825591602001919060010190612bbc565b5b509050612be59190612be9565b5090565b5b80821115612c02576000816000905550600101612bea565b5090565b6000612c19612c1484613347565b613322565b905082815260208101848484011115612c3157600080fd5b612c3c8482856134a6565b509392505050565b600081359050612c53816136a4565b92915050565b600081519050612c68816136bb565b92915050565b600082601f830112612c7f57600080fd5b8135612c8f848260208601612c06565b91505092915050565b600081359050612ca7816136d2565b92915050565b600060208284031215612cbf57600080fd5b6000612ccd84828501612c44565b91505092915050565b600060208284031215612ce857600080fd5b6000612cf684828501612c59565b91505092915050565b600060208284031215612d1157600080fd5b6000612d1f84828501612c98565b91505092915050565b600080600080600080600060e0888a031215612d4357600080fd5b6000612d518a828b01612c98565b9750506020612d628a828b01612c44565b965050604088013567ffffffffffffffff811115612d7f57600080fd5b612d8b8a828b01612c6e565b955050606088013567ffffffffffffffff811115612da857600080fd5b612db48a828b01612c6e565b945050608088013567ffffffffffffffff811115612dd157600080fd5b612ddd8a828b01612c6e565b93505060a088013567ffffffffffffffff811115612dfa57600080fd5b612e068a828b01612c6e565b92505060c088013567ffffffffffffffff811115612e2357600080fd5b612e2f8a828b01612c6e565b91505092959891949750929550565b60008060408385031215612e5157600080fd5b6000612e5f85828601612c98565b9250506020612e7085828601612c98565b9150509250929050565b612e838161342f565b82525050565b612e928161342f565b82525050565b612ea181613441565b82525050565b612eb08161344d565b82525050565b612ebf8161344d565b82525050565b612ece81613494565b82525050565b612edd81613494565b82525050565b6000612eee82613378565b612ef88185613383565b9350612f088185602086016134b5565b612f1181613607565b840191505092915050565b6000612f2782613378565b612f318185613394565b9350612f418185602086016134b5565b612f4a81613607565b840191505092915050565b6000612f62602083613394565b9150612f6d82613618565b602082019050919050565b6000612f85602983613394565b9150612f9082613641565b604082019050919050565b60006101e083016000830151612fb460008601826130fa565b506020830151612fc760208601826130fa565b506040830151612fda6040860182612e7a565b506060830151612fed6060860182612e7a565b50608083015184820360808601526130058282612ee3565b91505060a083015184820360a086015261301f8282612ee3565b91505060c083015184820360c08601526130398282612ee3565b91505060e083015184820360e08601526130538282612ee3565b91505061010083015161306a610100860182612ea7565b506101208301518482036101208601526130848282612ee3565b91505061014083015161309b6101408601826130fa565b506101608301516130b0610160860182612ec5565b506101808301516130c5610180860182612e7a565b506101a08301516130da6101a0860182612e7a565b506101c08301516130ef6101c0860182612e7a565b508091505092915050565b6131038161348a565b82525050565b6131128161348a565b82525050565b600060208201905061312d6000830184612e89565b92915050565b60006020820190506131486000830184612e98565b92915050565b6000602082019050818103600083015261316781612f55565b9050919050565b6000602082019050818103600083015261318781612f78565b9050919050565b600060208201905081810360008301526131a88184612f9b565b905092915050565b60006020820190506131c56000830184613109565b92915050565b60006040820190506131e06000830185613109565b6131ed6020830184613109565b9392505050565b60006101008201905061320a600083018b613109565b613217602083018a613109565b6132246040830189612e89565b6132316060830188612e89565b81810360808301526132438187612f1c565b905081810360a08301526132578186612f1c565b905081810360c083015261326b8185612f1c565b905081810360e083015261327f8184612f1c565b90509998505050505050505050565b6000610120820190506132a4600083018c613109565b6132b1602083018b613109565b6132be604083018a612eb6565b81810360608301526132d08189612f1c565b90506132df6080830188613109565b6132ec60a0830187612ed4565b6132f960c0830186612e89565b61330660e0830185612e89565b613314610100830184612e89565b9a9950505050505050505050565b600061332c61333d565b9050613338828261351a565b919050565b6000604051905090565b600067ffffffffffffffff821115613362576133616135d8565b5b61336b82613607565b9050602081019050919050565b600081519050919050565b600082825260208201905092915050565b600082825260208201905092915050565b60006133b08261348a565b91506133bb8361348a565b9250827fffffffffffffffffffffffffffffffffffffffffffffffffffffffffffffffff038211156133f0576133ef61354b565b5b828201905092915050565b60006134068261348a565b91506134118361348a565b9250828210156134245761342361354b565b5b828203905092915050565b600061343a8261346a565b9050919050565b60008115159050919050565b6000819050919050565b600081905061346582613690565b919050565b600073ffffffffffffffffffffffffffffffffffffffff82169050919050565b6000819050919050565b600061349f82613457565b9050919050565b82818337600083830152505050565b60005b838110156134d35780820151818401526020810190506134b8565b838111156134e2576000848401525b50505050565b6000600282049050600182168061350057607f821691505b60208210811415613514576135136135a9565b5b50919050565b61352382613607565b810181811067ffffffffffffffff82111715613542576135416135d8565b5b80604052505050565b7f4e487b7100000000000000000000000000000000000000000000000000000000600052601160045260246000fd5b7f4e487b7100000000000000000000000000000000000000000000000000000000600052602160045260246000fd5b7f4e487b7100000000000000000000000000000000000000000000000000000000600052602260045260246000fd5b7f4e487b7100000000000000000000000000000000000000000000000000000000600052604160045260246000fd5b6000601f19601f8301169050919050565b7f74686973206974656d20686173206265656e206164646564206561726c696572600082015250565b7f6f6e6c79206469737472696275746f722063616e20627579206974656d20667260008201527f6f6d206661726d65720000000000000000000000000000000000000000000000602082015250565b600881106136a1576136a061357a565b5b50565b6136ad8161342f565b81146136b857600080fd5b50565b6136c481613441565b81146136cf57600080fd5b50565b6136db8161348a565b81146136e657600080fd5b5056fea2646970667358221220b82553b8a742d716465954a3ae288a9bdde690ce7ad4f81e339d13fb7ddf1f7864736f6c63430008030033",
  "immutableReferences": {},
  "source": "// SPDX-License-Identifier: MIT\npragma solidity ^0.8.0;\n\nimport \"./../coffeecore/Ownable.sol\";\nimport \"./../coffeeaccesscontrol/FarmerRole.sol\";\nimport \"./../coffeeaccesscontrol/DistributorRole.sol\";\nimport \"./../coffeeaccesscontrol/RetailerRole.sol\";\nimport \"./../coffeeaccesscontrol/ConsumerRole.sol\";\n\n// Define a contract 'Supplychain'\ncontract SupplyChain is Ownable {\n    //Delegate for FarmerRole\n    FarmerRole private farmerRole;\n    DistributorRole private distibutorRole;\n    RetailerRole private retailerRole;\n    ConsumerRole private consumerRole;\n    // Define 'owner'\n    //address payable owner;\n\n    // Define a variable called 'upc' for Universal Product Code (UPC)\n    uint256 upc;\n\n    // Define a variable called 'sku' for Stock Keeping Unit (SKU)\n    uint256 sku;\n\n    // Define a public mapping 'items' that maps the UPC to an Item.\n    mapping(uint256 => Item) items;\n\n    // Define a public mapping 'itemsHistory' that maps the UPC to an array of TxHash,\n    // that track its journey through the supply chain -- to be sent from DApp.\n    mapping(uint256 => string[]) itemsHistory;\n\n    // Define enum 'State' with the following values:\n    enum State {\n        Harvested, // 0\n        Processed, // 1\n        Packed, // 2\n        ForSale, // 3\n        Sold, // 4\n        Shipped, // 5\n        Received, // 6\n        Purchased // 7\n    }\n\n    State constant defaultState = State.Harvested;\n\n    // Define a struct 'Item' with the following fields:\n    struct Item {\n        uint256 sku; // Stock Keeping Unit (SKU)\n        uint256 upc; // Universal Product Code (UPC), generated by the Farmer, goes on the package, can be verified by the Consumer\n        address ownerID; // Metamask-Ethereum address of the current owner as the product moves through 8 stages\n        address originFarmerID; // Metamask-Ethereum address of the Farmer\n        string originFarmName; // Farmer Name\n        string originFarmInformation; // Farmer Information\n        string originFarmLatitude; // Farm Latitude\n        string originFarmLongitude; // Farm Longitude\n        bytes32 productID; // Product ID potentially a combination of upc + sku\n        string productNotes; // Product Notes\n        uint256 productPrice; // Product Price\n        State state; // Product State as represented in the enum above\n        address distributorID; // Metamask-Ethereum address of the Distributor\n        address retailerID; // Metamask-Ethereum address of the Retailer\n        address consumerID; // Metamask-Ethereum address of the Consumer\n    }\n\n    // Define 8 events with the same 8 state values and accept 'upc' as input argument\n    event Harvested(uint256 upc);\n    event Processed(uint256 upc);\n    event Packed(uint256 upc);\n    event ForSale(uint256 upc);\n    event Sold(uint256 upc);\n    event Shipped(uint256 upc);\n    event Received(uint256 upc);\n    event Purchased(uint256 upc);\n\n    // Define a modifer that verifies the Caller\n    modifier verifyCaller(address _address) {\n        require(msg.sender == _address);\n        _;\n    }\n\n    // Define a modifier that checks if the paid amount is sufficient to cover the price\n    modifier paidEnough(uint256 _price) {\n        require(msg.value >= _price);\n        _;\n    }\n\n    // Define a modifier that checks the price and refunds the remaining balance\n    modifier checkValue(uint256 _upc) {\n        _;\n        uint256 _price = items[_upc].productPrice;\n        uint256 amountToReturn = msg.value - _price;\n        payable(msg.sender).transfer(amountToReturn);\n    }\n\n    // Define a modifier that checks if an item.state of a upc is Harvested\n    modifier harvested(uint256 _upc) {\n        require(items[_upc].state == State.Harvested);\n        _;\n    }\n\n    // Define a modifier that checks if an item.state of a upc is Processed\n    modifier processed(uint256 _upc) {\n        require(items[_upc].state == State.Processed);\n        _;\n    }\n\n    // Define a modifier that checks if an item.state of a upc is Packed\n    modifier packed(uint256 _upc) {\n        require(items[_upc].state == State.Packed);\n        _;\n    }\n\n    // Define a modifier that checks if an item.state of a upc is ForSale\n    modifier forSale(uint256 _upc) {\n        require(items[_upc].state == State.ForSale);\n        _;\n    }\n\n    // Define a modifier that checks if an item.state of a upc is Sold\n    modifier sold(uint256 _upc) {\n        require(items[_upc].state == State.Sold);\n        _;\n    }\n\n    // Define a modifier that checks if an item.state of a upc is Shipped\n    modifier shipped(uint256 _upc) {\n        require(items[_upc].state == State.Shipped);\n        _;\n    }\n\n    // Define a modifier that checks if an item.state of a upc is Received\n    modifier received(uint256 _upc) {\n        require(items[_upc].state == State.Received);\n        _;\n    }\n\n    // Define a modifier that checks if an item.state of a upc is Purchased\n    modifier purchased(uint256 _upc) {\n        require(items[_upc].state == State.Purchased);\n        _;\n    }\n    modifier onlyRetailer() {\n        require(retailerRole.isInRole(msg.sender));\n        _;\n    }\n    modifier onlyConsumer() {\n        require(consumerRole.isInRole(msg.sender));\n        _;\n    }\n    modifier onlyFarmer() {\n        require(farmerRole.isInRole(msg.sender));\n        _;\n    }\n\n    modifier onlyDistibutor() {\n        require(distibutorRole.isInRole(msg.sender));\n        _;\n    }\n\n    // In the constructor set 'owner' to the address that instantiated the contract\n    // and set 'sku' to 1\n    // and set 'upc' to 1\n    constructor(\n        address farmerRoleContractAddress,\n        address distibutorRoleContractAddress,\n        address retailerRoleContractAddress,\n        address consumerRoleContractAddress\n    ) {\n        farmerRole = FarmerRole(farmerRoleContractAddress);\n        distibutorRole = DistributorRole(distibutorRoleContractAddress);\n        retailerRole = RetailerRole(retailerRoleContractAddress);\n        consumerRole = ConsumerRole(consumerRoleContractAddress);\n        sku = 1;\n        upc = 1;\n    }\n\n    // Define a function 'kill' if required\n    function kill() public {\n        if (msg.sender == owner()) {\n            selfdestruct(payable(owner()));\n        }\n    }\n\n    // Define a function 'harvestItem' that allows a farmer to mark an item 'Harvested'\n    function harvestItem(\n        uint256 _upc,\n        address _originFarmerID,\n        string memory _originFarmName,\n        string memory _originFarmInformation,\n        string memory _originFarmLatitude,\n        string memory _originFarmLongitude,\n        string memory _productNotes\n    ) public onlyFarmer() {\n        // Add the new item as part of Harvest\n        require(items[_upc].sku == 0, \"this item has been added earlier\");\n\n        Item memory item;\n        item.sku = sku;\n        item.upc = _upc;\n        item.ownerID = payable(_originFarmerID);\n        item.originFarmerID = payable(_originFarmerID);\n        item.originFarmName = _originFarmName;\n        item.originFarmInformation = _originFarmInformation;\n        item.originFarmLatitude = _originFarmLatitude;\n        item.originFarmLongitude = _originFarmLongitude;\n        item.productID = keccak256(abi.encode(sku, _upc));\n        item.productNotes = _productNotes;\n        item.state = defaultState;\n\n        items[_upc] = item;\n        itemsHistory[_upc].push(string(abi.encode(item))); //;\n        // Increment sku\n        sku += 1;\n        // Emit the appropriate event\n        emit Harvested(item.upc);\n    }\n\n    // Define a function 'processtItem' that allows a farmer to mark an item 'Processed'\n    function processItem(uint256 _upc)\n        public\n        // Call modifier to check if upc has passed previous supply chain stage\n        harvested(_upc)\n        // Call modifier to verify caller of this function\n        verifyCaller(items[_upc].ownerID)\n    {\n        // Update the appropriate fields\n        items[_upc].state = State.Processed;\n        // Emit the appropriate event\n        emit Processed(_upc);\n    }\n\n    // Define a function 'packItem' that allows a farmer to mark an item 'Packed'\n    function packItem(uint256 _upc)\n        public\n        onlyFarmer()\n        // Call modifier to check if upc has passed previous supply chain stage\n        processed(_upc)\n        // Call modifier to verify caller of this function\n        verifyCaller(items[_upc].ownerID)\n    {\n        // Update the appropriate fields\n        items[_upc].state = State.Packed;\n        // Emit the appropriate event\n        emit Packed(_upc);\n    }\n\n    // Define a function 'sellItem' that allows a farmer to mark an item 'ForSale'\n    function sellItem(uint256 _upc, uint256 _price)\n        public\n        onlyFarmer()\n        // Call modifier to check if upc has passed previous supply chain stage\n        packed(_upc)\n        // Call modifier to verify caller of this function\n        verifyCaller(items[_upc].ownerID)\n    {\n        // Update the appropriate fields\n        items[_upc].state = State.ForSale;\n        items[_upc].productPrice = _price;\n        // Emit the appropriate event\n        emit ForSale(upc);\n    }\n\n    // Define a function 'buyItem' that allows the disributor to mark an item 'Sold'\n    // Use the above defined modifiers to check if the item is available for sale, if the buyer has paid enough,\n    // and any excess ether sent is refunded back to the buyer\n    function buyItem(uint256 _upc)\n        public\n        payable\n        onlyDistibutor()\n        // Call modifier to check if upc has passed previous supply chain stage\n        forSale(_upc)\n        // Call modifer to check if buyer has paid enough\n        paidEnough(_upc)\n        // Call modifer to send any excess ether back to buyer\n        checkValue(_upc)\n    {\n        require(\n            distibutorRole.isInRole(msg.sender),\n            \"only distributor can buy item from farmer\"\n        );\n        // Update the appropriate fields - ownerID, distributorID, itemState\n        items[_upc].state = State.Sold;\n        items[_upc].ownerID = payable(msg.sender);\n        items[_upc].distributorID = payable(msg.sender);\n        // Transfer money to farmer\n        payable(items[_upc].originFarmerID).transfer(items[_upc].productPrice);\n        // emit the appropriate event\n        emit Sold(upc);\n    }\n\n    // Define a function 'shipItem' that allows the distributor to mark an item 'Shipped'\n    // Use the above modifers to check if the item is sold\n    function shipItem(uint256 _upc)\n        public\n        onlyDistibutor()\n        // Call modifier to check if upc has passed previous supply chain stage\n        sold(_upc)\n        // Call modifier to verify caller of this function\n        verifyCaller(items[_upc].distributorID)\n    {\n        // Update the appropriate fields\n        items[_upc].state = State.Shipped;\n        // Emit the appropriate event\n        emit Shipped(_upc);\n    }\n\n    // Define a function 'receiveItem' that allows the retailer to mark an item 'Received'\n    // Use the above modifiers to check if the item is shipped\n    function receiveItem(uint256 _upc)\n        public\n        // Call modifier to check if upc has passed previous supply chain stage\n        shipped(_upc)\n        // Access Control List enforced by calling Smart Contract / DApp\n        onlyRetailer()\n    {\n        // Update the appropriate fields - ownerID, retailerID, itemState\n        items[_upc].state = State.Received;\n        items[_upc].ownerID = msg.sender;\n        items[_upc].retailerID = msg.sender;\n        // Emit the appropriate event\n        emit Received(_upc);\n    }\n\n    // Define a function 'purchaseItem' that allows the consumer to mark an item 'Purchased'\n    // Use the above modifiers to check if the item is received\n    function purchaseItem(uint256 _upc)\n        public\n        // Call modifier to check if upc has passed previous supply chain stage\n        received(_upc)\n        // Access Control List enforced by calling Smart Contract / DApp\n        onlyConsumer()\n    {\n        // Update the appropriate fields - ownerID, consumerID, itemState\n        items[_upc].state = State.Purchased;\n        items[_upc].ownerID = msg.sender;\n        items[_upc].consumerID = msg.sender;\n        // Emit the appropriate event\n        emit Purchased(_upc);\n    }\n\n    // Define a function 'fetchItemBufferOne' that fetches the data\n    function fetchItemBufferOne(uint256 _upc)\n        public\n        view\n        returns (\n            uint256 itemSKU,\n            uint256 itemUPC,\n            address ownerID,\n            address originFarmerID,\n            string memory originFarmName,\n            string memory originFarmInformation,\n            string memory originFarmLatitude,\n            string memory originFarmLongitude\n        )\n    {\n        // Assign values to the 8 parameters\n        Item memory item = items[_upc];\n        return (\n            item.sku,\n            item.upc,\n            item.ownerID,\n            item.originFarmerID,\n            item.originFarmName,\n            item.originFarmInformation,\n            item.originFarmLatitude,\n            item.originFarmLongitude\n        );\n    }\n\n    // Define a function 'fetchItemBufferTwo' that fetches the data\n    function fetchItemBufferTwo(uint256 _upc)\n        public\n        view\n        returns (\n            uint256 itemSKU,\n            uint256 itemUPC,\n            bytes32 productID,\n            string memory productNotes,\n            uint256 productPrice,\n            State itemState,\n            address distributorID,\n            address retailerID,\n            address consumerID\n        )\n    {\n        // Assign values to the 9 parameters\n        Item memory item = items[_upc];\n        return (\n            item.sku,\n            item.upc,\n            item.productID,\n            item.productNotes,\n            item.productPrice,\n            item.state,\n            item.distributorID,\n            item.retailerID,\n            item.consumerID\n        );\n    }\n\n    receive() external payable {\n        // payable fallback to receive and store ETH\n    }\n}\n",
  "sourcePath": "/Users/sergeygordeev/work/study/BlockChain/Udacity/udacity-supply-chain/project-6/contracts/coffeebase/SupplyChain.sol",
  "compiler": {
    "name": "solc",
    "version": "0.8.3+commit.8d00100c.Emscripten.clang"
  },
  "schemaVersion": "3.4.0",
  "updatedAt": "2021-05-04T06:03:10.197Z",
  "networkType": "ethereum",
  "devdoc": {
    "kind": "dev",
    "methods": {},
    "version": 1
  },
  "userdoc": {
    "kind": "user",
    "methods": {
      "isOwner()": {
        "notice": "Check if the calling address is the owner of the contract"
      },
      "owner()": {
        "notice": "Look up the address of the owner"
      },
      "renounceOwnership()": {
        "notice": "Define a function to renounce ownerhip"
      },
      "transferOwnership(address)": {
        "notice": "Define a public function to transfer ownership"
      }
    },
    "version": 1
  }
}